{
  "_format": "hh-sol-artifact-1",
  "contractName": "RealEstateRental",
  "sourceName": "contracts/RentalEscrow.sol",
  "abi": [
    {
      "anonymous": false,
      "inputs": [
        {
          "indexed": true,
          "internalType": "uint256",
          "name": "propertyId",
          "type": "uint256"
        }
      ],
      "name": "PropertyDeactivated",
      "type": "event"
    },
    {
      "anonymous": false,
      "inputs": [
        {
          "indexed": true,
          "internalType": "uint256",
          "name": "propertyId",
          "type": "uint256"
        },
        {
          "indexed": true,
          "internalType": "address",
          "name": "owner",
          "type": "address"
        },
        {
          "indexed": false,
          "internalType": "string",
          "name": "title",
          "type": "string"
        },
        {
          "indexed": false,
          "internalType": "uint256",
          "name": "pricePerDay",
          "type": "uint256"
        }
      ],
      "name": "PropertyListed",
      "type": "event"
    },
    {
      "anonymous": false,
      "inputs": [
        {
          "indexed": true,
          "internalType": "uint256",
          "name": "propertyId",
          "type": "uint256"
        },
        {
          "indexed": false,
          "internalType": "uint256",
          "name": "pricePerDay",
          "type": "uint256"
        },
        {
          "indexed": false,
          "internalType": "uint256",
          "name": "deposit",
          "type": "uint256"
        }
      ],
      "name": "PropertyUpdated",
      "type": "event"
    },
    {
      "anonymous": false,
      "inputs": [
        {
          "indexed": true,
          "internalType": "uint256",
          "name": "rentalId",
          "type": "uint256"
        },
        {
          "indexed": true,
          "internalType": "address",
          "name": "cancelledBy",
          "type": "address"
        },
        {
          "indexed": false,
          "internalType": "uint256",
          "name": "refundAmount",
          "type": "uint256"
        }
      ],
      "name": "RentalCancelled",
      "type": "event"
    },
    {
      "anonymous": false,
      "inputs": [
        {
          "indexed": true,
          "internalType": "uint256",
          "name": "rentalId",
          "type": "uint256"
        },
        {
          "indexed": true,
          "internalType": "address",
          "name": "tenant",
          "type": "address"
        }
      ],
      "name": "RentalCompleted",
      "type": "event"
    },
    {
      "anonymous": false,
      "inputs": [
        {
          "indexed": true,
          "internalType": "uint256",
          "name": "rentalId",
          "type": "uint256"
        },
        {
          "indexed": true,
          "internalType": "uint256",
          "name": "propertyId",
          "type": "uint256"
        },
        {
          "indexed": true,
          "internalType": "address",
          "name": "tenant",
          "type": "address"
        },
        {
          "indexed": false,
          "internalType": "uint256",
          "name": "startDate",
          "type": "uint256"
        },
        {
          "indexed": false,
          "internalType": "uint256",
          "name": "endDate",
          "type": "uint256"
        }
      ],
      "name": "RentalCreated",
      "type": "event"
    },
    {
      "inputs": [
        {
          "internalType": "uint256",
          "name": "_rentalId",
          "type": "uint256"
        }
      ],
      "name": "cancelRental",
      "outputs": [],
      "stateMutability": "nonpayable",
      "type": "function"
    },
    {
      "inputs": [
        {
          "internalType": "uint256",
          "name": "_rentalId",
          "type": "uint256"
        }
      ],
      "name": "completeRental",
      "outputs": [],
      "stateMutability": "nonpayable",
      "type": "function"
    },
    {
      "inputs": [],
      "name": "getAvailableProperties",
      "outputs": [
        {
          "components": [
            {
              "internalType": "uint256",
              "name": "id",
              "type": "uint256"
            },
            {
              "internalType": "address",
              "name": "owner",
              "type": "address"
            },
            {
              "internalType": "string",
              "name": "title",
              "type": "string"
            },
            {
              "internalType": "string",
              "name": "description",
              "type": "string"
            },
            {
              "internalType": "string",
              "name": "location",
              "type": "string"
            },
            {
              "internalType": "uint256",
              "name": "pricePerDay",
              "type": "uint256"
            },
            {
              "internalType": "uint256",
              "name": "deposit",
              "type": "uint256"
            },
            {
              "internalType": "bool",
              "name": "isActive",
              "type": "bool"
            },
            {
              "internalType": "uint256[]",
              "name": "rentalIds",
              "type": "uint256[]"
            }
          ],
          "internalType": "struct RealEstateRental.Property[]",
          "name": "",
          "type": "tuple[]"
        }
      ],
      "stateMutability": "view",
      "type": "function"
    },
    {
      "inputs": [
        {
          "internalType": "uint256",
          "name": "_propertyId",
          "type": "uint256"
        }
      ],
      "name": "getBookedDates",
      "outputs": [
        {
          "internalType": "uint256[]",
          "name": "startDates",
          "type": "uint256[]"
        },
        {
          "internalType": "uint256[]",
          "name": "endDates",
          "type": "uint256[]"
        }
      ],
      "stateMutability": "view",
      "type": "function"
    },
    {
      "inputs": [
        {
          "internalType": "uint256",
          "name": "_propertyId",
          "type": "uint256"
        }
      ],
      "name": "getProperty",
      "outputs": [
        {
          "components": [
            {
              "internalType": "uint256",
              "name": "id",
              "type": "uint256"
            },
            {
              "internalType": "address",
              "name": "owner",
              "type": "address"
            },
            {
              "internalType": "string",
              "name": "title",
              "type": "string"
            },
            {
              "internalType": "string",
              "name": "description",
              "type": "string"
            },
            {
              "internalType": "string",
              "name": "location",
              "type": "string"
            },
            {
              "internalType": "uint256",
              "name": "pricePerDay",
              "type": "uint256"
            },
            {
              "internalType": "uint256",
              "name": "deposit",
              "type": "uint256"
            },
            {
              "internalType": "bool",
              "name": "isActive",
              "type": "bool"
            },
            {
              "internalType": "uint256[]",
              "name": "rentalIds",
              "type": "uint256[]"
            }
          ],
          "internalType": "struct RealEstateRental.Property",
          "name": "",
          "type": "tuple"
        }
      ],
      "stateMutability": "view",
      "type": "function"
    },
    {
      "inputs": [
        {
          "internalType": "uint256",
          "name": "_rentalId",
          "type": "uint256"
        }
      ],
      "name": "getRentalAgreement",
      "outputs": [
        {
          "components": [
            {
              "internalType": "uint256",
              "name": "id",
              "type": "uint256"
            },
            {
              "internalType": "uint256",
              "name": "propertyId",
              "type": "uint256"
            },
            {
              "internalType": "address",
              "name": "tenant",
              "type": "address"
            },
            {
              "internalType": "uint256",
              "name": "startDate",
              "type": "uint256"
            },
            {
              "internalType": "uint256",
              "name": "endDate",
              "type": "uint256"
            },
            {
              "internalType": "uint256",
              "name": "totalPrice",
              "type": "uint256"
            },
            {
              "internalType": "uint256",
              "name": "deposit",
              "type": "uint256"
            },
            {
              "internalType": "enum RealEstateRental.RentalStatus",
              "name": "status",
              "type": "uint8"
            }
          ],
          "internalType": "struct RealEstateRental.RentalAgreement",
          "name": "",
          "type": "tuple"
        }
      ],
      "stateMutability": "view",
      "type": "function"
    },
    {
      "inputs": [
        {
          "internalType": "address",
          "name": "_user",
          "type": "address"
        }
      ],
      "name": "getUserProperties",
      "outputs": [
        {
          "internalType": "uint256[]",
          "name": "",
          "type": "uint256[]"
        }
      ],
      "stateMutability": "view",
      "type": "function"
    },
    {
      "inputs": [
        {
          "internalType": "address",
          "name": "_user",
          "type": "address"
        }
      ],
      "name": "getUserRentals",
      "outputs": [
        {
          "internalType": "uint256[]",
          "name": "",
          "type": "uint256[]"
        }
      ],
      "stateMutability": "view",
      "type": "function"
    },
    {
      "inputs": [
        {
          "internalType": "uint256",
          "name": "_propertyId",
          "type": "uint256"
        },
        {
          "internalType": "uint256",
          "name": "_startDate",
          "type": "uint256"
        },
        {
          "internalType": "uint256",
          "name": "_endDate",
          "type": "uint256"
        }
      ],
      "name": "hasDateConflict",
      "outputs": [
        {
          "internalType": "bool",
          "name": "",
          "type": "bool"
        }
      ],
      "stateMutability": "view",
      "type": "function"
    },
    {
      "inputs": [
        {
          "internalType": "uint256",
          "name": "_propertyId",
          "type": "uint256"
        },
        {
          "internalType": "uint256",
          "name": "_startDate",
          "type": "uint256"
        },
        {
          "internalType": "uint256",
          "name": "_endDate",
          "type": "uint256"
        }
      ],
      "name": "isAvailableForDates",
      "outputs": [
        {
          "internalType": "bool",
          "name": "",
          "type": "bool"
        }
      ],
      "stateMutability": "view",
      "type": "function"
    },
    {
      "inputs": [
        {
          "internalType": "string",
          "name": "_title",
          "type": "string"
        },
        {
          "internalType": "string",
          "name": "_description",
          "type": "string"
        },
        {
          "internalType": "string",
          "name": "_location",
          "type": "string"
        },
        {
          "internalType": "uint256",
          "name": "_pricePerDay",
          "type": "uint256"
        },
        {
          "internalType": "uint256",
          "name": "_deposit",
          "type": "uint256"
        }
      ],
      "name": "listProperty",
      "outputs": [
        {
          "internalType": "uint256",
          "name": "",
          "type": "uint256"
        }
      ],
      "stateMutability": "nonpayable",
      "type": "function"
    },
    {
      "inputs": [
        {
          "internalType": "uint256",
          "name": "",
          "type": "uint256"
        }
      ],
      "name": "properties",
      "outputs": [
        {
          "internalType": "uint256",
          "name": "id",
          "type": "uint256"
        },
        {
          "internalType": "address",
          "name": "owner",
          "type": "address"
        },
        {
          "internalType": "string",
          "name": "title",
          "type": "string"
        },
        {
          "internalType": "string",
          "name": "description",
          "type": "string"
        },
        {
          "internalType": "string",
          "name": "location",
          "type": "string"
        },
        {
          "internalType": "uint256",
          "name": "pricePerDay",
          "type": "uint256"
        },
        {
          "internalType": "uint256",
          "name": "deposit",
          "type": "uint256"
        },
        {
          "internalType": "bool",
          "name": "isActive",
          "type": "bool"
        }
      ],
      "stateMutability": "view",
      "type": "function"
    },
    {
      "inputs": [
        {
          "internalType": "uint256",
          "name": "_propertyId",
          "type": "uint256"
        },
        {
          "internalType": "uint256",
          "name": "_startDate",
          "type": "uint256"
        },
        {
          "internalType": "uint256",
          "name": "_endDate",
          "type": "uint256"
        }
      ],
      "name": "rentProperty",
      "outputs": [
        {
          "internalType": "uint256",
          "name": "",
          "type": "uint256"
        }
      ],
      "stateMutability": "payable",
      "type": "function"
    },
    {
      "inputs": [
        {
          "internalType": "uint256",
          "name": "",
          "type": "uint256"
        }
      ],
      "name": "rentals",
      "outputs": [
        {
          "internalType": "uint256",
          "name": "id",
          "type": "uint256"
        },
        {
          "internalType": "uint256",
          "name": "propertyId",
          "type": "uint256"
        },
        {
          "internalType": "address",
          "name": "tenant",
          "type": "address"
        },
        {
          "internalType": "uint256",
          "name": "startDate",
          "type": "uint256"
        },
        {
          "internalType": "uint256",
          "name": "endDate",
          "type": "uint256"
        },
        {
          "internalType": "uint256",
          "name": "totalPrice",
          "type": "uint256"
        },
        {
          "internalType": "uint256",
          "name": "deposit",
          "type": "uint256"
        },
        {
          "internalType": "enum RealEstateRental.RentalStatus",
          "name": "status",
          "type": "uint8"
        }
      ],
      "stateMutability": "view",
      "type": "function"
    }
  ],
  "bytecode": "0x608060405234801561001057600080fd5b50613b3b806100206000396000f3fe6080604052600436106100dd5760003560e01c80635e0dacb41161007f578063af94a1d111610059578063af94a1d11461030b578063bf621bc31461034f578063d2da7c711461038c578063f7b10808146103bc576100dd565b80635e0dacb41461027c57806364c655ed146102a5578063896f018f146102e2576100dd565b806316c34f23116100bb57806316c34f231461018757806318a8a6cf146101c557806332665ffb146102025780633b6702a11461023f576100dd565b8063060a3e61146100e257806306d88bbf1461011f5780631265d8471461014a575b600080fd5b3480156100ee57600080fd5b5061010960048036038101906101049190612507565b610400565b60405161011691906125fc565b60405180910390f35b34801561012b57600080fd5b50610134610497565b60405161014191906128e3565b60405180910390f35b34801561015657600080fd5b50610171600480360381019061016c9190612a66565b6108d0565b60405161017e9190612b44565b60405180910390f35b34801561019357600080fd5b506101ae60048036038101906101a99190612b5f565b610b6f565b6040516101bc929190612b8c565b60405180910390f35b3480156101d157600080fd5b506101ec60048036038101906101e79190612b5f565b610e1a565b6040516101f99190612cdc565b60405180910390f35b34801561020e57600080fd5b5061022960048036038101906102249190612b5f565b610f70565b6040516102369190612dd2565b60405180910390f35b34801561024b57600080fd5b5061026660048036038101906102619190612507565b611296565b60405161027391906125fc565b60405180910390f35b34801561028857600080fd5b506102a3600480360381019061029e9190612b5f565b61132d565b005b3480156102b157600080fd5b506102cc60048036038101906102c79190612df4565b611717565b6040516102d99190612e56565b60405180910390f35b3480156102ee57600080fd5b5061030960048036038101906103049190612b5f565b6117b5565b005b34801561031757600080fd5b50610332600480360381019061032d9190612b5f565b611b04565b604051610346989796959493929190612e8f565b60405180910390f35b34801561035b57600080fd5b5061037660048036038101906103719190612df4565b611b79565b6040516103839190612e56565b60405180910390f35b6103a660048036038101906103a19190612df4565b611c61565b6040516103b39190612b44565b60405180910390f35b3480156103c857600080fd5b506103e360048036038101906103de9190612b5f565b6121b7565b6040516103f7989796959493929190612f57565b60405180910390f35b6060600460008373ffffffffffffffffffffffffffffffffffffffff1673ffffffffffffffffffffffffffffffffffffffff16815260200190815260200160002080548060200260200160405190810160405280929190818152602001828054801561048b57602002820191906000526020600020905b815481526020019060010190808311610477575b50505050509050919050565b60606000805b6006805490508110156105135760026000600683815481106104c2576104c1612fea565b5b9060005260206000200154815260200190815260200160002060070160009054906101000a900460ff16156105005781806104fc90613048565b9250505b808061050b90613048565b91505061049d565b5060008167ffffffffffffffff8111156105305761052f61290f565b5b60405190808252806020026020018201604052801561056957816020015b6105566123c4565b81526020019060019003908161054e5790505b5090506000805b6006805490508110156108c65760006006828154811061059357610592612fea565b5b906000526020600020015490506002600082815260200190815260200160002060070160009054906101000a900460ff16156108b2576002600082815260200190815260200160002060405180610120016040529081600082015481526020016001820160009054906101000a900473ffffffffffffffffffffffffffffffffffffffff1673ffffffffffffffffffffffffffffffffffffffff1673ffffffffffffffffffffffffffffffffffffffff168152602001600282018054610658906130bf565b80601f0160208091040260200160405190810160405280929190818152602001828054610684906130bf565b80156106d15780601f106106a6576101008083540402835291602001916106d1565b820191906000526020600020905b8154815290600101906020018083116106b457829003601f168201915b505050505081526020016003820180546106ea906130bf565b80601f0160208091040260200160405190810160405280929190818152602001828054610716906130bf565b80156107635780601f1061073857610100808354040283529160200191610763565b820191906000526020600020905b81548152906001019060200180831161074657829003601f168201915b5050505050815260200160048201805461077c906130bf565b80601f01602080910402602001604051908101604052809291908181526020018280546107a8906130bf565b80156107f55780601f106107ca576101008083540402835291602001916107f5565b820191906000526020600020905b8154815290600101906020018083116107d857829003601f168201915b5050505050815260200160058201548152602001600682015481526020016007820160009054906101000a900460ff161515151581526020016008820180548060200260200160405190810160405280929190818152602001828054801561087c57602002820191906000526020600020905b815481526020019060010190808311610868575b50505050508152505084848151811061089857610897612fea565b5b602002602001018190525082806108ae90613048565b9350505b5080806108be90613048565b915050610570565b5081935050505090565b600080865111610915576040517f08c379a000000000000000000000000000000000000000000000000000000000815260040161090c9061313c565b60405180910390fd5b6000845111610959576040517f08c379a0000000000000000000000000000000000000000000000000000000008152600401610950906131a8565b60405180910390fd5b6000831161099c576040517f08c379a000000000000000000000000000000000000000000000000000000000815260040161099390613214565b60405180910390fd5b6000808154809291906109ae90613048565b91905055506000805490506000600260008381526020019081526020016000209050818160000181905550338160010160006101000a81548173ffffffffffffffffffffffffffffffffffffffff021916908373ffffffffffffffffffffffffffffffffffffffff16021790555087816002019081610a2d91906133e0565b5086816003019081610a3f91906133e0565b5085816004019081610a5191906133e0565b5084816005018190555083816006018190555060018160070160006101000a81548160ff021916908315150217905550600460003373ffffffffffffffffffffffffffffffffffffffff1673ffffffffffffffffffffffffffffffffffffffff16815260200190815260200160002082908060018154018082558091505060019003906000526020600020016000909190919091505560068290806001815401808255809150506001900390600052602060002001600090919091909150553373ffffffffffffffffffffffffffffffffffffffff16827f4faf3c72065aaaddb6b745e48ea5a8933818b2a856fb6b21dd04b6ac9812b0428a88604051610b599291906134b2565b60405180910390a3819250505095945050505050565b606080826000600260008381526020019081526020016000206000015403610bcc576040517f08c379a0000000000000000000000000000000000000000000000000000000008152600401610bc39061352e565b60405180910390fd5b60006002600086815260200190815260200160002090506000805b8260080180549050811015610c875760006002811115610c0a57610c09612bc3565b5b60036000856008018481548110610c2457610c23612fea565b5b9060005260206000200154815260200190815260200160002060070160009054906101000a900460ff166002811115610c6057610c5f612bc3565b5b03610c74578180610c7090613048565b9250505b8080610c7f90613048565b915050610be7565b508067ffffffffffffffff811115610ca257610ca161290f565b5b604051908082528060200260200182016040528015610cd05781602001602082028036833780820191505090505b5094508067ffffffffffffffff811115610ced57610cec61290f565b5b604051908082528060200260200182016040528015610d1b5781602001602082028036833780820191505090505b5093506000805b8360080180549050811015610e1057600060036000866008018481548110610d4d57610d4c612fea565b5b90600052602060002001548152602001908152602001600020905060006002811115610d7c57610d7b612bc3565b5b8160070160009054906101000a900460ff166002811115610da057610d9f612bc3565b5b03610dfc578060030154888481518110610dbd57610dbc612fea565b5b6020026020010181815250508060040154878481518110610de157610de0612fea565b5b6020026020010181815250508280610df890613048565b9350505b508080610e0890613048565b915050610d22565b5050505050915091565b610e22612428565b816000600360008381526020019081526020016000206000015403610e7c576040517f08c379a0000000000000000000000000000000000000000000000000000000008152600401610e739061359a565b60405180910390fd5b600360008481526020019081526020016000206040518061010001604052908160008201548152602001600182015481526020016002820160009054906101000a900473ffffffffffffffffffffffffffffffffffffffff1673ffffffffffffffffffffffffffffffffffffffff1673ffffffffffffffffffffffffffffffffffffffff168152602001600382015481526020016004820154815260200160058201548152602001600682015481526020016007820160009054906101000a900460ff166002811115610f5257610f51612bc3565b5b6002811115610f6457610f63612bc3565b5b81525050915050919050565b610f786123c4565b816000600260008381526020019081526020016000206000015403610fd2576040517f08c379a0000000000000000000000000000000000000000000000000000000008152600401610fc99061352e565b60405180910390fd5b6002600084815260200190815260200160002060405180610120016040529081600082015481526020016001820160009054906101000a900473ffffffffffffffffffffffffffffffffffffffff1673ffffffffffffffffffffffffffffffffffffffff1673ffffffffffffffffffffffffffffffffffffffff168152602001600282018054611061906130bf565b80601f016020809104026020016040519081016040528092919081815260200182805461108d906130bf565b80156110da5780601f106110af576101008083540402835291602001916110da565b820191906000526020600020905b8154815290600101906020018083116110bd57829003601f168201915b505050505081526020016003820180546110f3906130bf565b80601f016020809104026020016040519081016040528092919081815260200182805461111f906130bf565b801561116c5780601f106111415761010080835404028352916020019161116c565b820191906000526020600020905b81548152906001019060200180831161114f57829003601f168201915b50505050508152602001600482018054611185906130bf565b80601f01602080910402602001604051908101604052809291908181526020018280546111b1906130bf565b80156111fe5780601f106111d3576101008083540402835291602001916111fe565b820191906000526020600020905b8154815290600101906020018083116111e157829003601f168201915b5050505050815260200160058201548152602001600682015481526020016007820160009054906101000a900460ff161515151581526020016008820180548060200260200160405190810160405280929190818152602001828054801561128557602002820191906000526020600020905b815481526020019060010190808311611271575b505050505081525050915050919050565b6060600560008373ffffffffffffffffffffffffffffffffffffffff1673ffffffffffffffffffffffffffffffffffffffff16815260200190815260200160002080548060200260200160405190810160405280929190818152602001828054801561132157602002820191906000526020600020905b81548152602001906001019080831161130d575b50505050509050919050565b806000600360008381526020019081526020016000206000015403611387576040517f08c379a000000000000000000000000000000000000000000000000000000000815260040161137e9061359a565b60405180910390fd5b6000600360008481526020019081526020016000209050600060026000836001015481526020019081526020016000209050600060028111156113cd576113cc612bc3565b5b8260070160009054906101000a900460ff1660028111156113f1576113f0612bc3565b5b14611431576040517f08c379a000000000000000000000000000000000000000000000000000000000815260040161142890613606565b60405180910390fd5b8060010160009054906101000a900473ffffffffffffffffffffffffffffffffffffffff1673ffffffffffffffffffffffffffffffffffffffff163373ffffffffffffffffffffffffffffffffffffffff1614806114de57508160020160009054906101000a900473ffffffffffffffffffffffffffffffffffffffff1673ffffffffffffffffffffffffffffffffffffffff163373ffffffffffffffffffffffffffffffffffffffff16145b61151d576040517f08c379a000000000000000000000000000000000000000000000000000000000815260040161151490613672565b60405180910390fd5b60028260070160006101000a81548160ff0219169083600281111561154557611544612bc3565b5b02179055506000826006015490508160010160009054906101000a900473ffffffffffffffffffffffffffffffffffffffff1673ffffffffffffffffffffffffffffffffffffffff163373ffffffffffffffffffffffffffffffffffffffff16036115bd578260050154816115ba9190613692565b90505b826003015442101561164357600081111561163e578260020160009054906101000a900473ffffffffffffffffffffffffffffffffffffffff1673ffffffffffffffffffffffffffffffffffffffff166108fc829081150290604051600060405180830381858888f1935050505015801561163c573d6000803e3d6000fd5b505b6116c1565b6000836006015411156116c0578160010160009054906101000a900473ffffffffffffffffffffffffffffffffffffffff1673ffffffffffffffffffffffffffffffffffffffff166108fc84600601549081150290604051600060405180830381858888f193505050501580156116be573d6000803e3d6000fd5b505b5b3373ffffffffffffffffffffffffffffffffffffffff16857f8e5451389e92e46e3ab85110d65acde7ac22919df8dd6df438d70b3188cace62836040516117089190612b44565b60405180910390a35050505050565b6000836000600260008381526020019081526020016000206000015403611773576040517f08c379a000000000000000000000000000000000000000000000000000000000815260040161176a9061352e565b60405180910390fd5b6002600086815260200190815260200160002060070160009054906101000a900460ff1680156117ab57506117a9858585611b79565b155b9150509392505050565b80600060036000838152602001908152602001600020600001540361180f576040517f08c379a00000000000000000000000000000000000000000000000000000000081526004016118069061359a565b60405180910390fd5b60006003600084815260200190815260200160002090506000600260008360010154815260200190815260200160002090506000600281111561185557611854612bc3565b5b8260070160009054906101000a900460ff16600281111561187957611878612bc3565b5b146118b9576040517f08c379a00000000000000000000000000000000000000000000000000000000081526004016118b090613606565b60405180910390fd5b8060010160009054906101000a900473ffffffffffffffffffffffffffffffffffffffff1673ffffffffffffffffffffffffffffffffffffffff163373ffffffffffffffffffffffffffffffffffffffff16148061196657508160020160009054906101000a900473ffffffffffffffffffffffffffffffffffffffff1673ffffffffffffffffffffffffffffffffffffffff163373ffffffffffffffffffffffffffffffffffffffff16145b6119a5576040517f08c379a000000000000000000000000000000000000000000000000000000000815260040161199c90613672565b60405180910390fd5b81600401544210156119ec576040517f08c379a00000000000000000000000000000000000000000000000000000000081526004016119e390613712565b60405180910390fd5b60018260070160006101000a81548160ff02191690836002811115611a1457611a13612bc3565b5b0217905550600082600601541115611a96578160020160009054906101000a900473ffffffffffffffffffffffffffffffffffffffff1673ffffffffffffffffffffffffffffffffffffffff166108fc83600601549081150290604051600060405180830381858888f19350505050158015611a94573d6000803e3d6000fd5b505b8160020160009054906101000a900473ffffffffffffffffffffffffffffffffffffffff1673ffffffffffffffffffffffffffffffffffffffff16847fc8891cc8407e9bc09a78421bd234c3fd57d71a2cc5f1ac6d5602070add66d0dd60405160405180910390a350505050565b60036020528060005260406000206000915090508060000154908060010154908060020160009054906101000a900473ffffffffffffffffffffffffffffffffffffffff16908060030154908060040154908060050154908060060154908060070160009054906101000a900460ff16905088565b60008060026000868152602001908152602001600020905060005b8160080180549050811015611c5357600060036000846008018481548110611bbf57611bbe612fea565b5b90600052602060002001548152602001908152602001600020905060006002811115611bee57611bed612bc3565b5b8160070160009054906101000a900460ff166002811115611c1257611c11612bc3565b5b03611c3f57806004015486108015611c2d5750806003015485115b15611c3e5760019350505050611c5a565b5b508080611c4b90613048565b915050611b94565b5060009150505b9392505050565b6000836000600260008381526020019081526020016000206000015403611cbd576040517f08c379a0000000000000000000000000000000000000000000000000000000008152600401611cb49061352e565b60405180910390fd5b60006002600087815260200190815260200160002090508060070160009054906101000a900460ff16611d25576040517f08c379a0000000000000000000000000000000000000000000000000000000008152600401611d1c9061377e565b60405180910390fd5b3373ffffffffffffffffffffffffffffffffffffffff168160010160009054906101000a900473ffffffffffffffffffffffffffffffffffffffff1673ffffffffffffffffffffffffffffffffffffffff1603611db7576040517f08c379a0000000000000000000000000000000000000000000000000000000008152600401611dae906137ea565b60405180910390fd5b42851015611dfa576040517f08c379a0000000000000000000000000000000000000000000000000000000008152600401611df190613856565b60405180910390fd5b848411611e3c576040517f08c379a0000000000000000000000000000000000000000000000000000000008152600401611e33906138e8565b60405180910390fd5b611e47868686611b79565b15611e87576040517f08c379a0000000000000000000000000000000000000000000000000000000008152600401611e7e9061397a565b60405180910390fd5b6000620151808686611e99919061399a565b611ea391906139fd565b905060008103611eb257600190505b6000826005015482611ec49190613a2e565b90506000836006015482611ed89190613692565b905080341015611f1d576040517f08c379a0000000000000000000000000000000000000000000000000000000008152600401611f1490613abc565b60405180910390fd5b60016000815480929190611f3090613048565b91905055506000600154905060006003600083815260200190815260200160002090508181600001819055508a8160010181905550338160020160006101000a81548173ffffffffffffffffffffffffffffffffffffffff021916908373ffffffffffffffffffffffffffffffffffffffff1602179055508981600301819055508881600401819055508381600501819055508560060154816006018190555060008160070160006101000a81548160ff02191690836002811115611ff857611ff7612bc3565b5b021790555085600801829080600181540180825580915050600190039060005260206000200160009091909190915055600560003373ffffffffffffffffffffffffffffffffffffffff1673ffffffffffffffffffffffffffffffffffffffff1681526020019081526020016000208290806001815401808255809150506001900390600052602060002001600090919091909150558560010160009054906101000a900473ffffffffffffffffffffffffffffffffffffffff1673ffffffffffffffffffffffffffffffffffffffff166108fc859081150290604051600060405180830381858888f193505050501580156120f8573d6000803e3d6000fd5b5082341115612154573373ffffffffffffffffffffffffffffffffffffffff166108fc8434612127919061399a565b9081150290604051600060405180830381858888f19350505050158015612152573d6000803e3d6000fd5b505b3373ffffffffffffffffffffffffffffffffffffffff168b837f4c5316b55ccb2da72bb535f58d04c5f2e2039ca52598e85f17f0875ae4b173c28d8d60405161219e929190613adc565b60405180910390a4819750505050505050509392505050565b60026020528060005260406000206000915090508060000154908060010160009054906101000a900473ffffffffffffffffffffffffffffffffffffffff1690806002018054612206906130bf565b80601f0160208091040260200160405190810160405280929190818152602001828054612232906130bf565b801561227f5780601f106122545761010080835404028352916020019161227f565b820191906000526020600020905b81548152906001019060200180831161226257829003601f168201915b505050505090806003018054612294906130bf565b80601f01602080910402602001604051908101604052809291908181526020018280546122c0906130bf565b801561230d5780601f106122e25761010080835404028352916020019161230d565b820191906000526020600020905b8154815290600101906020018083116122f057829003601f168201915b505050505090806004018054612322906130bf565b80601f016020809104026020016040519081016040528092919081815260200182805461234e906130bf565b801561239b5780601f106123705761010080835404028352916020019161239b565b820191906000526020600020905b81548152906001019060200180831161237e57829003601f168201915b5050505050908060050154908060060154908060070160009054906101000a900460ff16905088565b60405180610120016040528060008152602001600073ffffffffffffffffffffffffffffffffffffffff1681526020016060815260200160608152602001606081526020016000815260200160008152602001600015158152602001606081525090565b6040518061010001604052806000815260200160008152602001600073ffffffffffffffffffffffffffffffffffffffff168152602001600081526020016000815260200160008152602001600081526020016000600281111561248f5761248e612bc3565b5b81525090565b6000604051905090565b600080fd5b600080fd5b600073ffffffffffffffffffffffffffffffffffffffff82169050919050565b60006124d4826124a9565b9050919050565b6124e4816124c9565b81146124ef57600080fd5b50565b600081359050612501816124db565b92915050565b60006020828403121561251d5761251c61249f565b5b600061252b848285016124f2565b91505092915050565b600081519050919050565b600082825260208201905092915050565b6000819050602082019050919050565b6000819050919050565b61257381612560565b82525050565b6000612585838361256a565b60208301905092915050565b6000602082019050919050565b60006125a982612534565b6125b3818561253f565b93506125be83612550565b8060005b838110156125ef5781516125d68882612579565b97506125e183612591565b9250506001810190506125c2565b5085935050505092915050565b60006020820190508181036000830152612616818461259e565b905092915050565b600081519050919050565b600082825260208201905092915050565b6000819050602082019050919050565b612653816124c9565b82525050565b600081519050919050565b600082825260208201905092915050565b60005b83811015612693578082015181840152602081019050612678565b60008484015250505050565b6000601f19601f8301169050919050565b60006126bb82612659565b6126c58185612664565b93506126d5818560208601612675565b6126de8161269f565b840191505092915050565b60008115159050919050565b6126fe816126e9565b82525050565b600082825260208201905092915050565b600061272082612534565b61272a8185612704565b935061273583612550565b8060005b8381101561276657815161274d8882612579565b975061275883612591565b925050600181019050612739565b5085935050505092915050565b60006101208301600083015161278c600086018261256a565b50602083015161279f602086018261264a565b50604083015184820360408601526127b782826126b0565b915050606083015184820360608601526127d182826126b0565b915050608083015184820360808601526127eb82826126b0565b91505060a083015161280060a086018261256a565b5060c083015161281360c086018261256a565b5060e083015161282660e08601826126f5565b506101008301518482036101008601526128408282612715565b9150508091505092915050565b60006128598383612773565b905092915050565b6000602082019050919050565b60006128798261261e565b6128838185612629565b9350836020820285016128958561263a565b8060005b858110156128d157848403895281516128b2858261284d565b94506128bd83612861565b925060208a01995050600181019050612899565b50829750879550505050505092915050565b600060208201905081810360008301526128fd818461286e565b905092915050565b600080fd5b600080fd5b7f4e487b7100000000000000000000000000000000000000000000000000000000600052604160045260246000fd5b6129478261269f565b810181811067ffffffffffffffff821117156129665761296561290f565b5b80604052505050565b6000612979612495565b9050612985828261293e565b919050565b600067ffffffffffffffff8211156129a5576129a461290f565b5b6129ae8261269f565b9050602081019050919050565b82818337600083830152505050565b60006129dd6129d88461298a565b61296f565b9050828152602081018484840111156129f9576129f861290a565b5b612a048482856129bb565b509392505050565b600082601f830112612a2157612a20612905565b5b8135612a318482602086016129ca565b91505092915050565b612a4381612560565b8114612a4e57600080fd5b50565b600081359050612a6081612a3a565b92915050565b600080600080600060a08688031215612a8257612a8161249f565b5b600086013567ffffffffffffffff811115612aa057612a9f6124a4565b5b612aac88828901612a0c565b955050602086013567ffffffffffffffff811115612acd57612acc6124a4565b5b612ad988828901612a0c565b945050604086013567ffffffffffffffff811115612afa57612af96124a4565b5b612b0688828901612a0c565b9350506060612b1788828901612a51565b9250506080612b2888828901612a51565b9150509295509295909350565b612b3e81612560565b82525050565b6000602082019050612b596000830184612b35565b92915050565b600060208284031215612b7557612b7461249f565b5b6000612b8384828501612a51565b91505092915050565b60006040820190508181036000830152612ba6818561259e565b90508181036020830152612bba818461259e565b90509392505050565b7f4e487b7100000000000000000000000000000000000000000000000000000000600052602160045260246000fd5b60038110612c0357612c02612bc3565b5b50565b6000819050612c1482612bf2565b919050565b6000612c2482612c06565b9050919050565b612c3481612c19565b82525050565b61010082016000820151612c51600085018261256a565b506020820151612c64602085018261256a565b506040820151612c77604085018261264a565b506060820151612c8a606085018261256a565b506080820151612c9d608085018261256a565b5060a0820151612cb060a085018261256a565b5060c0820151612cc360c085018261256a565b5060e0820151612cd660e0850182612c2b565b50505050565b600061010082019050612cf26000830184612c3a565b92915050565b600061012083016000830151612d11600086018261256a565b506020830151612d24602086018261264a565b5060408301518482036040860152612d3c82826126b0565b91505060608301518482036060860152612d5682826126b0565b91505060808301518482036080860152612d7082826126b0565b91505060a0830151612d8560a086018261256a565b5060c0830151612d9860c086018261256a565b5060e0830151612dab60e08601826126f5565b50610100830151848203610100860152612dc58282612715565b9150508091505092915050565b60006020820190508181036000830152612dec8184612cf8565b905092915050565b600080600060608486031215612e0d57612e0c61249f565b5b6000612e1b86828701612a51565b9350506020612e2c86828701612a51565b9250506040612e3d86828701612a51565b9150509250925092565b612e50816126e9565b82525050565b6000602082019050612e6b6000830184612e47565b92915050565b612e7a816124c9565b82525050565b612e8981612c19565b82525050565b600061010082019050612ea5600083018b612b35565b612eb2602083018a612b35565b612ebf6040830189612e71565b612ecc6060830188612b35565b612ed96080830187612b35565b612ee660a0830186612b35565b612ef360c0830185612b35565b612f0060e0830184612e80565b9998505050505050505050565b600082825260208201905092915050565b6000612f2982612659565b612f338185612f0d565b9350612f43818560208601612675565b612f4c8161269f565b840191505092915050565b600061010082019050612f6d600083018b612b35565b612f7a602083018a612e71565b8181036040830152612f8c8189612f1e565b90508181036060830152612fa08188612f1e565b90508181036080830152612fb48187612f1e565b9050612fc360a0830186612b35565b612fd060c0830185612b35565b612fdd60e0830184612e47565b9998505050505050505050565b7f4e487b7100000000000000000000000000000000000000000000000000000000600052603260045260246000fd5b7f4e487b7100000000000000000000000000000000000000000000000000000000600052601160045260246000fd5b600061305382612560565b91507fffffffffffffffffffffffffffffffffffffffffffffffffffffffffffffffff820361308557613084613019565b5b600182019050919050565b7f4e487b7100000000000000000000000000000000000000000000000000000000600052602260045260246000fd5b600060028204905060018216806130d757607f821691505b6020821081036130ea576130e9613090565b5b50919050565b7f5469746c65207265717569726564000000000000000000000000000000000000600082015250565b6000613126600e83612f0d565b9150613131826130f0565b602082019050919050565b6000602082019050818103600083015261315581613119565b9050919050565b7f4c6f636174696f6e207265717569726564000000000000000000000000000000600082015250565b6000613192601183612f0d565b915061319d8261315c565b602082019050919050565b600060208201905081810360008301526131c181613185565b9050919050565b7f5072696365206d7573742062652067726561746572207468616e203000000000600082015250565b60006131fe601c83612f0d565b9150613209826131c8565b602082019050919050565b6000602082019050818103600083015261322d816131f1565b9050919050565b60008190508160005260206000209050919050565b60006020601f8301049050919050565b600082821b905092915050565b6000600883026132967fffffffffffffffffffffffffffffffffffffffffffffffffffffffffffffffff82613259565b6132a08683613259565b95508019841693508086168417925050509392505050565b6000819050919050565b60006132dd6132d86132d384612560565b6132b8565b612560565b9050919050565b6000819050919050565b6132f7836132c2565b61330b613303826132e4565b848454613266565b825550505050565b600090565b613320613313565b61332b8184846132ee565b505050565b5b8181101561334f57613344600082613318565b600181019050613331565b5050565b601f8211156133945761336581613234565b61336e84613249565b8101602085101561337d578190505b61339161338985613249565b830182613330565b50505b505050565b600082821c905092915050565b60006133b760001984600802613399565b1980831691505092915050565b60006133d083836133a6565b9150826002028217905092915050565b6133e982612659565b67ffffffffffffffff8111156134025761340161290f565b5b61340c82546130bf565b613417828285613353565b600060209050601f83116001811461344a5760008415613438578287015190505b61344285826133c4565b8655506134aa565b601f19841661345886613234565b60005b828110156134805784890151825560018201915060208501945060208101905061345b565b8683101561349d5784890151613499601f8916826133a6565b8355505b6001600288020188555050505b505050505050565b600060408201905081810360008301526134cc8185612f1e565b90506134db6020830184612b35565b9392505050565b7f50726f706572747920646f6573206e6f74206578697374000000000000000000600082015250565b6000613518601783612f0d565b9150613523826134e2565b602082019050919050565b600060208201905081810360008301526135478161350b565b9050919050565b7f52656e74616c20646f6573206e6f742065786973740000000000000000000000600082015250565b6000613584601583612f0d565b915061358f8261354e565b602082019050919050565b600060208201905081810360008301526135b381613577565b9050919050565b7f52656e74616c206e6f7420616374697665000000000000000000000000000000600082015250565b60006135f0601183612f0d565b91506135fb826135ba565b602082019050919050565b6000602082019050818103600083015261361f816135e3565b9050919050565b7f4e6f7420617574686f72697a6564000000000000000000000000000000000000600082015250565b600061365c600e83612f0d565b915061366782613626565b602082019050919050565b6000602082019050818103600083015261368b8161364f565b9050919050565b600061369d82612560565b91506136a883612560565b92508282019050808211156136c0576136bf613019565b5b92915050565b7f52656e74616c20706572696f64206e6f7420656e646564000000000000000000600082015250565b60006136fc601783612f0d565b9150613707826136c6565b602082019050919050565b6000602082019050818103600083015261372b816136ef565b9050919050565b7f50726f7065727479206e6f742061637469766500000000000000000000000000600082015250565b6000613768601383612f0d565b915061377382613732565b602082019050919050565b600060208201905081810360008301526137978161375b565b9050919050565b7f43616e6e6f742072656e74206f776e2070726f70657274790000000000000000600082015250565b60006137d4601883612f0d565b91506137df8261379e565b602082019050919050565b60006020820190508181036000830152613803816137c7565b9050919050565b7f53746172742064617465206d75737420626520696e2066757475726500000000600082015250565b6000613840601c83612f0d565b915061384b8261380a565b602082019050919050565b6000602082019050818103600083015261386f81613833565b9050919050565b7f456e642064617465206d7573742062652061667465722073746172742064617460008201527f6500000000000000000000000000000000000000000000000000000000000000602082015250565b60006138d2602183612f0d565b91506138dd82613876565b604082019050919050565b60006020820190508181036000830152613901816138c5565b9050919050565b7f446174657320636f6e666c6963742077697468206578697374696e672072656e60008201527f74616c0000000000000000000000000000000000000000000000000000000000602082015250565b6000613964602383612f0d565b915061396f82613908565b604082019050919050565b6000602082019050818103600083015261399381613957565b9050919050565b60006139a582612560565b91506139b083612560565b92508282039050818111156139c8576139c7613019565b5b92915050565b7f4e487b7100000000000000000000000000000000000000000000000000000000600052601260045260246000fd5b6000613a0882612560565b9150613a1383612560565b925082613a2357613a226139ce565b5b828204905092915050565b6000613a3982612560565b9150613a4483612560565b9250828202613a5281612560565b91508282048414831517613a6957613a68613019565b5b5092915050565b7f496e73756666696369656e74207061796d656e74000000000000000000000000600082015250565b6000613aa6601483612f0d565b9150613ab182613a70565b602082019050919050565b60006020820190508181036000830152613ad581613a99565b9050919050565b6000604082019050613af16000830185612b35565b613afe6020830184612b35565b939250505056fea2646970667358221220688e7e8c34d0a19ebc3943ad71cd1e21dbf825c5a344131be4177ba3b3e826d864736f6c63430008130033",
  "linkReferences": {},
  "deployedLinkReferences": {}
}