{
  "_format": "hh-sol-artifact-1",
  "contractName": "RealEstateRental",
  "sourceName": "contracts/RentalEscrow.sol",
  "abi": [
    {
      "anonymous": false,
      "inputs": [
        {
          "indexed": true,
          "internalType": "uint256",
          "name": "propertyId",
          "type": "uint256"
        }
      ],
      "name": "PropertyDeactivated",
      "type": "event"
    },
    {
      "anonymous": false,
      "inputs": [
        {
          "indexed": true,
          "internalType": "uint256",
          "name": "propertyId",
          "type": "uint256"
        },
        {
          "indexed": true,
          "internalType": "address",
          "name": "owner",
          "type": "address"
        },
        {
          "indexed": false,
          "internalType": "string",
          "name": "title",
          "type": "string"
        },
        {
          "indexed": false,
          "internalType": "uint256",
          "name": "pricePerDay",
          "type": "uint256"
        }
      ],
      "name": "PropertyListed",
      "type": "event"
    },
    {
      "anonymous": false,
      "inputs": [
        {
          "indexed": true,
          "internalType": "uint256",
          "name": "propertyId",
          "type": "uint256"
        },
        {
          "indexed": false,
          "internalType": "uint256",
          "name": "pricePerDay",
          "type": "uint256"
        },
        {
          "indexed": false,
          "internalType": "uint256",
          "name": "deposit",
          "type": "uint256"
        }
      ],
      "name": "PropertyUpdated",
      "type": "event"
    },
    {
      "anonymous": false,
      "inputs": [
        {
          "indexed": true,
          "internalType": "uint256",
          "name": "rentalId",
          "type": "uint256"
        },
        {
          "indexed": true,
          "internalType": "address",
          "name": "cancelledBy",
          "type": "address"
        },
        {
          "indexed": false,
          "internalType": "uint256",
          "name": "refundAmount",
          "type": "uint256"
        }
      ],
      "name": "RentalCancelled",
      "type": "event"
    },
    {
      "anonymous": false,
      "inputs": [
        {
          "indexed": true,
          "internalType": "uint256",
          "name": "rentalId",
          "type": "uint256"
        },
        {
          "indexed": true,
          "internalType": "address",
          "name": "tenant",
          "type": "address"
        }
      ],
      "name": "RentalCompleted",
      "type": "event"
    },
    {
      "anonymous": false,
      "inputs": [
        {
          "indexed": true,
          "internalType": "uint256",
          "name": "rentalId",
          "type": "uint256"
        },
        {
          "indexed": true,
          "internalType": "uint256",
          "name": "propertyId",
          "type": "uint256"
        },
        {
          "indexed": true,
          "internalType": "address",
          "name": "tenant",
          "type": "address"
        },
        {
          "indexed": false,
          "internalType": "uint256",
          "name": "startDate",
          "type": "uint256"
        },
        {
          "indexed": false,
          "internalType": "uint256",
          "name": "endDate",
          "type": "uint256"
        }
      ],
      "name": "RentalCreated",
      "type": "event"
    },
    {
      "inputs": [
        {
          "internalType": "uint256",
          "name": "_propertyId",
          "type": "uint256"
        },
        {
          "internalType": "uint256",
          "name": "_startDate",
          "type": "uint256"
        },
        {
          "internalType": "uint256",
          "name": "_endDate",
          "type": "uint256"
        }
      ],
      "name": "blockDates",
      "outputs": [
        {
          "internalType": "uint256",
          "name": "",
          "type": "uint256"
        }
      ],
      "stateMutability": "nonpayable",
      "type": "function"
    },
    {
      "inputs": [
        {
          "internalType": "uint256",
          "name": "_rentalId",
          "type": "uint256"
        }
      ],
      "name": "cancelRental",
      "outputs": [],
      "stateMutability": "nonpayable",
      "type": "function"
    },
    {
      "inputs": [
        {
          "internalType": "uint256",
          "name": "_rentalId",
          "type": "uint256"
        }
      ],
      "name": "completeRental",
      "outputs": [],
      "stateMutability": "nonpayable",
      "type": "function"
    },
    {
      "inputs": [],
      "name": "getAvailableProperties",
      "outputs": [
        {
          "components": [
            {
              "internalType": "uint256",
              "name": "id",
              "type": "uint256"
            },
            {
              "internalType": "address",
              "name": "owner",
              "type": "address"
            },
            {
              "internalType": "string",
              "name": "title",
              "type": "string"
            },
            {
              "internalType": "string",
              "name": "description",
              "type": "string"
            },
            {
              "internalType": "string",
              "name": "location",
              "type": "string"
            },
            {
              "internalType": "uint256",
              "name": "pricePerDay",
              "type": "uint256"
            },
            {
              "internalType": "uint256",
              "name": "deposit",
              "type": "uint256"
            },
            {
              "internalType": "bool",
              "name": "isActive",
              "type": "bool"
            },
            {
              "internalType": "uint256[]",
              "name": "rentalIds",
              "type": "uint256[]"
            }
          ],
          "internalType": "struct RealEstateRental.Property[]",
          "name": "",
          "type": "tuple[]"
        }
      ],
      "stateMutability": "view",
      "type": "function"
    },
    {
      "inputs": [
        {
          "internalType": "uint256",
          "name": "_propertyId",
          "type": "uint256"
        }
      ],
      "name": "getBookedDates",
      "outputs": [
        {
          "internalType": "uint256[]",
          "name": "startDates",
          "type": "uint256[]"
        },
        {
          "internalType": "uint256[]",
          "name": "endDates",
          "type": "uint256[]"
        }
      ],
      "stateMutability": "view",
      "type": "function"
    },
    {
      "inputs": [
        {
          "internalType": "uint256",
          "name": "_propertyId",
          "type": "uint256"
        }
      ],
      "name": "getProperty",
      "outputs": [
        {
          "components": [
            {
              "internalType": "uint256",
              "name": "id",
              "type": "uint256"
            },
            {
              "internalType": "address",
              "name": "owner",
              "type": "address"
            },
            {
              "internalType": "string",
              "name": "title",
              "type": "string"
            },
            {
              "internalType": "string",
              "name": "description",
              "type": "string"
            },
            {
              "internalType": "string",
              "name": "location",
              "type": "string"
            },
            {
              "internalType": "uint256",
              "name": "pricePerDay",
              "type": "uint256"
            },
            {
              "internalType": "uint256",
              "name": "deposit",
              "type": "uint256"
            },
            {
              "internalType": "bool",
              "name": "isActive",
              "type": "bool"
            },
            {
              "internalType": "uint256[]",
              "name": "rentalIds",
              "type": "uint256[]"
            }
          ],
          "internalType": "struct RealEstateRental.Property",
          "name": "",
          "type": "tuple"
        }
      ],
      "stateMutability": "view",
      "type": "function"
    },
    {
      "inputs": [
        {
          "internalType": "uint256",
          "name": "_rentalId",
          "type": "uint256"
        }
      ],
      "name": "getRentalAgreement",
      "outputs": [
        {
          "components": [
            {
              "internalType": "uint256",
              "name": "id",
              "type": "uint256"
            },
            {
              "internalType": "uint256",
              "name": "propertyId",
              "type": "uint256"
            },
            {
              "internalType": "address",
              "name": "tenant",
              "type": "address"
            },
            {
              "internalType": "uint256",
              "name": "startDate",
              "type": "uint256"
            },
            {
              "internalType": "uint256",
              "name": "endDate",
              "type": "uint256"
            },
            {
              "internalType": "uint256",
              "name": "totalPrice",
              "type": "uint256"
            },
            {
              "internalType": "uint256",
              "name": "deposit",
              "type": "uint256"
            },
            {
              "internalType": "enum RealEstateRental.RentalStatus",
              "name": "status",
              "type": "uint8"
            }
          ],
          "internalType": "struct RealEstateRental.RentalAgreement",
          "name": "",
          "type": "tuple"
        }
      ],
      "stateMutability": "view",
      "type": "function"
    },
    {
      "inputs": [
        {
          "internalType": "address",
          "name": "_user",
          "type": "address"
        }
      ],
      "name": "getUserProperties",
      "outputs": [
        {
          "internalType": "uint256[]",
          "name": "",
          "type": "uint256[]"
        }
      ],
      "stateMutability": "view",
      "type": "function"
    },
    {
      "inputs": [
        {
          "internalType": "address",
          "name": "_user",
          "type": "address"
        }
      ],
      "name": "getUserRentals",
      "outputs": [
        {
          "internalType": "uint256[]",
          "name": "",
          "type": "uint256[]"
        }
      ],
      "stateMutability": "view",
      "type": "function"
    },
    {
      "inputs": [
        {
          "internalType": "uint256",
          "name": "_propertyId",
          "type": "uint256"
        },
        {
          "internalType": "uint256",
          "name": "_startDate",
          "type": "uint256"
        },
        {
          "internalType": "uint256",
          "name": "_endDate",
          "type": "uint256"
        }
      ],
      "name": "hasDateConflict",
      "outputs": [
        {
          "internalType": "bool",
          "name": "",
          "type": "bool"
        }
      ],
      "stateMutability": "view",
      "type": "function"
    },
    {
      "inputs": [
        {
          "internalType": "uint256",
          "name": "_propertyId",
          "type": "uint256"
        },
        {
          "internalType": "uint256",
          "name": "_startDate",
          "type": "uint256"
        },
        {
          "internalType": "uint256",
          "name": "_endDate",
          "type": "uint256"
        }
      ],
      "name": "isAvailableForDates",
      "outputs": [
        {
          "internalType": "bool",
          "name": "",
          "type": "bool"
        }
      ],
      "stateMutability": "view",
      "type": "function"
    },
    {
      "inputs": [
        {
          "internalType": "string",
          "name": "_title",
          "type": "string"
        },
        {
          "internalType": "string",
          "name": "_description",
          "type": "string"
        },
        {
          "internalType": "string",
          "name": "_location",
          "type": "string"
        },
        {
          "internalType": "uint256",
          "name": "_pricePerDay",
          "type": "uint256"
        },
        {
          "internalType": "uint256",
          "name": "_deposit",
          "type": "uint256"
        }
      ],
      "name": "listProperty",
      "outputs": [
        {
          "internalType": "uint256",
          "name": "",
          "type": "uint256"
        }
      ],
      "stateMutability": "nonpayable",
      "type": "function"
    },
    {
      "inputs": [
        {
          "internalType": "uint256",
          "name": "",
          "type": "uint256"
        }
      ],
      "name": "properties",
      "outputs": [
        {
          "internalType": "uint256",
          "name": "id",
          "type": "uint256"
        },
        {
          "internalType": "address",
          "name": "owner",
          "type": "address"
        },
        {
          "internalType": "string",
          "name": "title",
          "type": "string"
        },
        {
          "internalType": "string",
          "name": "description",
          "type": "string"
        },
        {
          "internalType": "string",
          "name": "location",
          "type": "string"
        },
        {
          "internalType": "uint256",
          "name": "pricePerDay",
          "type": "uint256"
        },
        {
          "internalType": "uint256",
          "name": "deposit",
          "type": "uint256"
        },
        {
          "internalType": "bool",
          "name": "isActive",
          "type": "bool"
        }
      ],
      "stateMutability": "view",
      "type": "function"
    },
    {
      "inputs": [
        {
          "internalType": "uint256",
          "name": "_propertyId",
          "type": "uint256"
        },
        {
          "internalType": "uint256",
          "name": "_startDate",
          "type": "uint256"
        },
        {
          "internalType": "uint256",
          "name": "_endDate",
          "type": "uint256"
        }
      ],
      "name": "rentProperty",
      "outputs": [
        {
          "internalType": "uint256",
          "name": "",
          "type": "uint256"
        }
      ],
      "stateMutability": "payable",
      "type": "function"
    },
    {
      "inputs": [
        {
          "internalType": "uint256",
          "name": "",
          "type": "uint256"
        }
      ],
      "name": "rentals",
      "outputs": [
        {
          "internalType": "uint256",
          "name": "id",
          "type": "uint256"
        },
        {
          "internalType": "uint256",
          "name": "propertyId",
          "type": "uint256"
        },
        {
          "internalType": "address",
          "name": "tenant",
          "type": "address"
        },
        {
          "internalType": "uint256",
          "name": "startDate",
          "type": "uint256"
        },
        {
          "internalType": "uint256",
          "name": "endDate",
          "type": "uint256"
        },
        {
          "internalType": "uint256",
          "name": "totalPrice",
          "type": "uint256"
        },
        {
          "internalType": "uint256",
          "name": "deposit",
          "type": "uint256"
        },
        {
          "internalType": "enum RealEstateRental.RentalStatus",
          "name": "status",
          "type": "uint8"
        }
      ],
      "stateMutability": "view",
      "type": "function"
    }
  ],
  "bytecode": "0x608060405234801561001057600080fd5b50613f86806100206000396000f3fe6080604052600436106100e85760003560e01c80635e0dacb41161008a578063af94a1d111610059578063af94a1d114610353578063bf621bc314610397578063d2da7c71146103d4578063f7b1080814610404576100e8565b80635e0dacb41461028757806364c655ed146102b0578063880484d2146102ed578063896f018f1461032a576100e8565b806316c34f23116100c657806316c34f231461019257806318a8a6cf146101d057806332665ffb1461020d5780633b6702a11461024a576100e8565b8063060a3e61146100ed57806306d88bbf1461012a5780631265d84714610155575b600080fd5b3480156100f957600080fd5b50610114600480360381019061010f91906128e6565b610448565b60405161012191906129db565b60405180910390f35b34801561013657600080fd5b5061013f6104df565b60405161014c9190612cc2565b60405180910390f35b34801561016157600080fd5b5061017c60048036038101906101779190612e45565b610918565b6040516101899190612f23565b60405180910390f35b34801561019e57600080fd5b506101b960048036038101906101b49190612f3e565b610bb7565b6040516101c7929190612f6b565b60405180910390f35b3480156101dc57600080fd5b506101f760048036038101906101f29190612f3e565b610e62565b60405161020491906130bb565b60405180910390f35b34801561021957600080fd5b50610234600480360381019061022f9190612f3e565b610fb8565b60405161024191906131b1565b60405180910390f35b34801561025657600080fd5b50610271600480360381019061026c91906128e6565b6112de565b60405161027e91906129db565b60405180910390f35b34801561029357600080fd5b506102ae60048036038101906102a99190612f3e565b611375565b005b3480156102bc57600080fd5b506102d760048036038101906102d291906131d3565b6116ed565b6040516102e49190613235565b60405180910390f35b3480156102f957600080fd5b50610314600480360381019061030f91906131d3565b61178b565b6040516103219190612f23565b60405180910390f35b34801561033657600080fd5b50610351600480360381019061034c9190612f3e565b611b94565b005b34801561035f57600080fd5b5061037a60048036038101906103759190612f3e565b611ee3565b60405161038e98979695949392919061326e565b60405180910390f35b3480156103a357600080fd5b506103be60048036038101906103b991906131d3565b611f58565b6040516103cb9190613235565b60405180910390f35b6103ee60048036038101906103e991906131d3565b612040565b6040516103fb9190612f23565b60405180910390f35b34801561041057600080fd5b5061042b60048036038101906104269190612f3e565b612596565b60405161043f989796959493929190613336565b60405180910390f35b6060600460008373ffffffffffffffffffffffffffffffffffffffff1673ffffffffffffffffffffffffffffffffffffffff1681526020019081526020016000208054806020026020016040519081016040528092919081815260200182805480156104d357602002820191906000526020600020905b8154815260200190600101908083116104bf575b50505050509050919050565b60606000805b60068054905081101561055b57600260006006838154811061050a576105096133c9565b5b9060005260206000200154815260200190815260200160002060070160009054906101000a900460ff161561054857818061054490613427565b9250505b808061055390613427565b9150506104e5565b5060008167ffffffffffffffff81111561057857610577612cee565b5b6040519080825280602002602001820160405280156105b157816020015b61059e6127a3565b8152602001906001900390816105965790505b5090506000805b60068054905081101561090e576000600682815481106105db576105da6133c9565b5b906000526020600020015490506002600082815260200190815260200160002060070160009054906101000a900460ff16156108fa576002600082815260200190815260200160002060405180610120016040529081600082015481526020016001820160009054906101000a900473ffffffffffffffffffffffffffffffffffffffff1673ffffffffffffffffffffffffffffffffffffffff1673ffffffffffffffffffffffffffffffffffffffff1681526020016002820180546106a09061349e565b80601f01602080910402602001604051908101604052809291908181526020018280546106cc9061349e565b80156107195780601f106106ee57610100808354040283529160200191610719565b820191906000526020600020905b8154815290600101906020018083116106fc57829003601f168201915b505050505081526020016003820180546107329061349e565b80601f016020809104026020016040519081016040528092919081815260200182805461075e9061349e565b80156107ab5780601f10610780576101008083540402835291602001916107ab565b820191906000526020600020905b81548152906001019060200180831161078e57829003601f168201915b505050505081526020016004820180546107c49061349e565b80601f01602080910402602001604051908101604052809291908181526020018280546107f09061349e565b801561083d5780601f106108125761010080835404028352916020019161083d565b820191906000526020600020905b81548152906001019060200180831161082057829003601f168201915b5050505050815260200160058201548152602001600682015481526020016007820160009054906101000a900460ff16151515158152602001600882018054806020026020016040519081016040528092919081815260200182805480156108c457602002820191906000526020600020905b8154815260200190600101908083116108b0575b5050505050815250508484815181106108e0576108df6133c9565b5b602002602001018190525082806108f690613427565b9350505b50808061090690613427565b9150506105b8565b5081935050505090565b60008086511161095d576040517f08c379a00000000000000000000000000000000000000000000000000000000081526004016109549061351b565b60405180910390fd5b60008451116109a1576040517f08c379a000000000000000000000000000000000000000000000000000000000815260040161099890613587565b60405180910390fd5b600083116109e4576040517f08c379a00000000000000000000000000000000000000000000000000000000081526004016109db906135f3565b60405180910390fd5b6000808154809291906109f690613427565b91905055506000805490506000600260008381526020019081526020016000209050818160000181905550338160010160006101000a81548173ffffffffffffffffffffffffffffffffffffffff021916908373ffffffffffffffffffffffffffffffffffffffff16021790555087816002019081610a7591906137bf565b5086816003019081610a8791906137bf565b5085816004019081610a9991906137bf565b5084816005018190555083816006018190555060018160070160006101000a81548160ff021916908315150217905550600460003373ffffffffffffffffffffffffffffffffffffffff1673ffffffffffffffffffffffffffffffffffffffff16815260200190815260200160002082908060018154018082558091505060019003906000526020600020016000909190919091505560068290806001815401808255809150506001900390600052602060002001600090919091909150553373ffffffffffffffffffffffffffffffffffffffff16827f4faf3c72065aaaddb6b745e48ea5a8933818b2a856fb6b21dd04b6ac9812b0428a88604051610ba1929190613891565b60405180910390a3819250505095945050505050565b606080826000600260008381526020019081526020016000206000015403610c14576040517f08c379a0000000000000000000000000000000000000000000000000000000008152600401610c0b9061390d565b60405180910390fd5b60006002600086815260200190815260200160002090506000805b8260080180549050811015610ccf5760006002811115610c5257610c51612fa2565b5b60036000856008018481548110610c6c57610c6b6133c9565b5b9060005260206000200154815260200190815260200160002060070160009054906101000a900460ff166002811115610ca857610ca7612fa2565b5b03610cbc578180610cb890613427565b9250505b8080610cc790613427565b915050610c2f565b508067ffffffffffffffff811115610cea57610ce9612cee565b5b604051908082528060200260200182016040528015610d185781602001602082028036833780820191505090505b5094508067ffffffffffffffff811115610d3557610d34612cee565b5b604051908082528060200260200182016040528015610d635781602001602082028036833780820191505090505b5093506000805b8360080180549050811015610e5857600060036000866008018481548110610d9557610d946133c9565b5b90600052602060002001548152602001908152602001600020905060006002811115610dc457610dc3612fa2565b5b8160070160009054906101000a900460ff166002811115610de857610de7612fa2565b5b03610e44578060030154888481518110610e0557610e046133c9565b5b6020026020010181815250508060040154878481518110610e2957610e286133c9565b5b6020026020010181815250508280610e4090613427565b9350505b508080610e5090613427565b915050610d6a565b5050505050915091565b610e6a612807565b816000600360008381526020019081526020016000206000015403610ec4576040517f08c379a0000000000000000000000000000000000000000000000000000000008152600401610ebb90613979565b60405180910390fd5b600360008481526020019081526020016000206040518061010001604052908160008201548152602001600182015481526020016002820160009054906101000a900473ffffffffffffffffffffffffffffffffffffffff1673ffffffffffffffffffffffffffffffffffffffff1673ffffffffffffffffffffffffffffffffffffffff168152602001600382015481526020016004820154815260200160058201548152602001600682015481526020016007820160009054906101000a900460ff166002811115610f9a57610f99612fa2565b5b6002811115610fac57610fab612fa2565b5b81525050915050919050565b610fc06127a3565b81600060026000838152602001908152602001600020600001540361101a576040517f08c379a00000000000000000000000000000000000000000000000000000000081526004016110119061390d565b60405180910390fd5b6002600084815260200190815260200160002060405180610120016040529081600082015481526020016001820160009054906101000a900473ffffffffffffffffffffffffffffffffffffffff1673ffffffffffffffffffffffffffffffffffffffff1673ffffffffffffffffffffffffffffffffffffffff1681526020016002820180546110a99061349e565b80601f01602080910402602001604051908101604052809291908181526020018280546110d59061349e565b80156111225780601f106110f757610100808354040283529160200191611122565b820191906000526020600020905b81548152906001019060200180831161110557829003601f168201915b5050505050815260200160038201805461113b9061349e565b80601f01602080910402602001604051908101604052809291908181526020018280546111679061349e565b80156111b45780601f10611189576101008083540402835291602001916111b4565b820191906000526020600020905b81548152906001019060200180831161119757829003601f168201915b505050505081526020016004820180546111cd9061349e565b80601f01602080910402602001604051908101604052809291908181526020018280546111f99061349e565b80156112465780601f1061121b57610100808354040283529160200191611246565b820191906000526020600020905b81548152906001019060200180831161122957829003601f168201915b5050505050815260200160058201548152602001600682015481526020016007820160009054906101000a900460ff16151515158152602001600882018054806020026020016040519081016040528092919081815260200182805480156112cd57602002820191906000526020600020905b8154815260200190600101908083116112b9575b505050505081525050915050919050565b6060600560008373ffffffffffffffffffffffffffffffffffffffff1673ffffffffffffffffffffffffffffffffffffffff16815260200190815260200160002080548060200260200160405190810160405280929190818152602001828054801561136957602002820191906000526020600020905b815481526020019060010190808311611355575b50505050509050919050565b8060006003600083815260200190815260200160002060000154036113cf576040517f08c379a00000000000000000000000000000000000000000000000000000000081526004016113c690613979565b60405180910390fd5b60006003600084815260200190815260200160002090506000600260008360010154815260200190815260200160002090506000600281111561141557611414612fa2565b5b8260070160009054906101000a900460ff16600281111561143957611438612fa2565b5b14611479576040517f08c379a0000000000000000000000000000000000000000000000000000000008152600401611470906139e5565b60405180910390fd5b8060010160009054906101000a900473ffffffffffffffffffffffffffffffffffffffff1673ffffffffffffffffffffffffffffffffffffffff163373ffffffffffffffffffffffffffffffffffffffff16148061152657508160020160009054906101000a900473ffffffffffffffffffffffffffffffffffffffff1673ffffffffffffffffffffffffffffffffffffffff163373ffffffffffffffffffffffffffffffffffffffff16145b611565576040517f08c379a000000000000000000000000000000000000000000000000000000000815260040161155c90613a51565b60405180910390fd5b60028260070160006101000a81548160ff0219169083600281111561158d5761158c612fa2565b5b0217905550600082600601549050826003015442101561162157600081111561161c578260020160009054906101000a900473ffffffffffffffffffffffffffffffffffffffff1673ffffffffffffffffffffffffffffffffffffffff166108fc829081150290604051600060405180830381858888f1935050505015801561161a573d6000803e3d6000fd5b505b611697565b6000811115611696578160010160009054906101000a900473ffffffffffffffffffffffffffffffffffffffff1673ffffffffffffffffffffffffffffffffffffffff166108fc829081150290604051600060405180830381858888f19350505050158015611694573d6000803e3d6000fd5b505b5b3373ffffffffffffffffffffffffffffffffffffffff16857f8e5451389e92e46e3ab85110d65acde7ac22919df8dd6df438d70b3188cace62836040516116de9190612f23565b60405180910390a35050505050565b6000836000600260008381526020019081526020016000206000015403611749576040517f08c379a00000000000000000000000000000000000000000000000000000000081526004016117409061390d565b60405180910390fd5b6002600086815260200190815260200160002060070160009054906101000a900460ff168015611781575061177f858585611f58565b155b9150509392505050565b60008360006002600083815260200190815260200160002060000154036117e7576040517f08c379a00000000000000000000000000000000000000000000000000000000081526004016117de9061390d565b60405180910390fd5b843373ffffffffffffffffffffffffffffffffffffffff166002600083815260200190815260200160002060010160009054906101000a900473ffffffffffffffffffffffffffffffffffffffff1673ffffffffffffffffffffffffffffffffffffffff161461188c576040517f08c379a000000000000000000000000000000000000000000000000000000000815260040161188390613abd565b60405180910390fd5b60006002600088815260200190815260200160002090508060070160009054906101000a900460ff166118f4576040517f08c379a00000000000000000000000000000000000000000000000000000000081526004016118eb90613b29565b60405180910390fd5b42861015611937576040517f08c379a000000000000000000000000000000000000000000000000000000000815260040161192e90613b95565b60405180910390fd5b858511611979576040517f08c379a000000000000000000000000000000000000000000000000000000000815260040161197090613c27565b60405180910390fd5b611984878787611f58565b156119c4576040517f08c379a00000000000000000000000000000000000000000000000000000000081526004016119bb90613cb9565b60405180910390fd5b600160008154809291906119d790613427565b9190505550600060015490506000600360008381526020019081526020016000209050818160000181905550888160010181905550338160020160006101000a81548173ffffffffffffffffffffffffffffffffffffffff021916908373ffffffffffffffffffffffffffffffffffffffff160217905550878160030181905550868160040181905550600081600501819055506000816006018190555060008160070160006101000a81548160ff02191690836002811115611a9d57611a9c612fa2565b5b021790555082600801829080600181540180825580915050600190039060005260206000200160009091909190915055600560003373ffffffffffffffffffffffffffffffffffffffff1673ffffffffffffffffffffffffffffffffffffffff1681526020019081526020016000208290806001815401808255809150506001900390600052602060002001600090919091909150553373ffffffffffffffffffffffffffffffffffffffff1689837f4c5316b55ccb2da72bb535f58d04c5f2e2039ca52598e85f17f0875ae4b173c28b8b604051611b7d929190613cd9565b60405180910390a481955050505050509392505050565b806000600360008381526020019081526020016000206000015403611bee576040517f08c379a0000000000000000000000000000000000000000000000000000000008152600401611be590613979565b60405180910390fd5b600060036000848152602001908152602001600020905060006002600083600101548152602001908152602001600020905060006002811115611c3457611c33612fa2565b5b8260070160009054906101000a900460ff166002811115611c5857611c57612fa2565b5b14611c98576040517f08c379a0000000000000000000000000000000000000000000000000000000008152600401611c8f906139e5565b60405180910390fd5b8060010160009054906101000a900473ffffffffffffffffffffffffffffffffffffffff1673ffffffffffffffffffffffffffffffffffffffff163373ffffffffffffffffffffffffffffffffffffffff161480611d4557508160020160009054906101000a900473ffffffffffffffffffffffffffffffffffffffff1673ffffffffffffffffffffffffffffffffffffffff163373ffffffffffffffffffffffffffffffffffffffff16145b611d84576040517f08c379a0000000000000000000000000000000000000000000000000000000008152600401611d7b90613a51565b60405180910390fd5b8160040154421015611dcb576040517f08c379a0000000000000000000000000000000000000000000000000000000008152600401611dc290613d4e565b60405180910390fd5b60018260070160006101000a81548160ff02191690836002811115611df357611df2612fa2565b5b0217905550600082600601541115611e75578160020160009054906101000a900473ffffffffffffffffffffffffffffffffffffffff1673ffffffffffffffffffffffffffffffffffffffff166108fc83600601549081150290604051600060405180830381858888f19350505050158015611e73573d6000803e3d6000fd5b505b8160020160009054906101000a900473ffffffffffffffffffffffffffffffffffffffff1673ffffffffffffffffffffffffffffffffffffffff16847fc8891cc8407e9bc09a78421bd234c3fd57d71a2cc5f1ac6d5602070add66d0dd60405160405180910390a350505050565b60036020528060005260406000206000915090508060000154908060010154908060020160009054906101000a900473ffffffffffffffffffffffffffffffffffffffff16908060030154908060040154908060050154908060060154908060070160009054906101000a900460ff16905088565b60008060026000868152602001908152602001600020905060005b816008018054905081101561203257600060036000846008018481548110611f9e57611f9d6133c9565b5b90600052602060002001548152602001908152602001600020905060006002811115611fcd57611fcc612fa2565b5b8160070160009054906101000a900460ff166002811115611ff157611ff0612fa2565b5b0361201e5780600401548610801561200c5750806003015485115b1561201d5760019350505050612039565b5b50808061202a90613427565b915050611f73565b5060009150505b9392505050565b600083600060026000838152602001908152602001600020600001540361209c576040517f08c379a00000000000000000000000000000000000000000000000000000000081526004016120939061390d565b60405180910390fd5b60006002600087815260200190815260200160002090508060070160009054906101000a900460ff16612104576040517f08c379a00000000000000000000000000000000000000000000000000000000081526004016120fb90613b29565b60405180910390fd5b3373ffffffffffffffffffffffffffffffffffffffff168160010160009054906101000a900473ffffffffffffffffffffffffffffffffffffffff1673ffffffffffffffffffffffffffffffffffffffff1603612196576040517f08c379a000000000000000000000000000000000000000000000000000000000815260040161218d90613dba565b60405180910390fd5b428510156121d9576040517f08c379a00000000000000000000000000000000000000000000000000000000081526004016121d090613b95565b60405180910390fd5b84841161221b576040517f08c379a000000000000000000000000000000000000000000000000000000000815260040161221290613c27565b60405180910390fd5b612226868686611f58565b15612266576040517f08c379a000000000000000000000000000000000000000000000000000000000815260040161225d90613cb9565b60405180910390fd5b60006201518086866122789190613dda565b6122829190613e3d565b90506000810361229157600190505b60008260050154826122a39190613e6e565b905060008360060154826122b79190613eb0565b9050803410156122fc576040517f08c379a00000000000000000000000000000000000000000000000000000000081526004016122f390613f30565b60405180910390fd5b6001600081548092919061230f90613427565b91905055506000600154905060006003600083815260200190815260200160002090508181600001819055508a8160010181905550338160020160006101000a81548173ffffffffffffffffffffffffffffffffffffffff021916908373ffffffffffffffffffffffffffffffffffffffff1602179055508981600301819055508881600401819055508381600501819055508560060154816006018190555060008160070160006101000a81548160ff021916908360028111156123d7576123d6612fa2565b5b021790555085600801829080600181540180825580915050600190039060005260206000200160009091909190915055600560003373ffffffffffffffffffffffffffffffffffffffff1673ffffffffffffffffffffffffffffffffffffffff1681526020019081526020016000208290806001815401808255809150506001900390600052602060002001600090919091909150558560010160009054906101000a900473ffffffffffffffffffffffffffffffffffffffff1673ffffffffffffffffffffffffffffffffffffffff166108fc859081150290604051600060405180830381858888f193505050501580156124d7573d6000803e3d6000fd5b5082341115612533573373ffffffffffffffffffffffffffffffffffffffff166108fc84346125069190613dda565b9081150290604051600060405180830381858888f19350505050158015612531573d6000803e3d6000fd5b505b3373ffffffffffffffffffffffffffffffffffffffff168b837f4c5316b55ccb2da72bb535f58d04c5f2e2039ca52598e85f17f0875ae4b173c28d8d60405161257d929190613cd9565b60405180910390a4819750505050505050509392505050565b60026020528060005260406000206000915090508060000154908060010160009054906101000a900473ffffffffffffffffffffffffffffffffffffffff16908060020180546125e59061349e565b80601f01602080910402602001604051908101604052809291908181526020018280546126119061349e565b801561265e5780601f106126335761010080835404028352916020019161265e565b820191906000526020600020905b81548152906001019060200180831161264157829003601f168201915b5050505050908060030180546126739061349e565b80601f016020809104026020016040519081016040528092919081815260200182805461269f9061349e565b80156126ec5780601f106126c1576101008083540402835291602001916126ec565b820191906000526020600020905b8154815290600101906020018083116126cf57829003601f168201915b5050505050908060040180546127019061349e565b80601f016020809104026020016040519081016040528092919081815260200182805461272d9061349e565b801561277a5780601f1061274f5761010080835404028352916020019161277a565b820191906000526020600020905b81548152906001019060200180831161275d57829003601f168201915b5050505050908060050154908060060154908060070160009054906101000a900460ff16905088565b60405180610120016040528060008152602001600073ffffffffffffffffffffffffffffffffffffffff1681526020016060815260200160608152602001606081526020016000815260200160008152602001600015158152602001606081525090565b6040518061010001604052806000815260200160008152602001600073ffffffffffffffffffffffffffffffffffffffff168152602001600081526020016000815260200160008152602001600081526020016000600281111561286e5761286d612fa2565b5b81525090565b6000604051905090565b600080fd5b600080fd5b600073ffffffffffffffffffffffffffffffffffffffff82169050919050565b60006128b382612888565b9050919050565b6128c3816128a8565b81146128ce57600080fd5b50565b6000813590506128e0816128ba565b92915050565b6000602082840312156128fc576128fb61287e565b5b600061290a848285016128d1565b91505092915050565b600081519050919050565b600082825260208201905092915050565b6000819050602082019050919050565b6000819050919050565b6129528161293f565b82525050565b60006129648383612949565b60208301905092915050565b6000602082019050919050565b600061298882612913565b612992818561291e565b935061299d8361292f565b8060005b838110156129ce5781516129b58882612958565b97506129c083612970565b9250506001810190506129a1565b5085935050505092915050565b600060208201905081810360008301526129f5818461297d565b905092915050565b600081519050919050565b600082825260208201905092915050565b6000819050602082019050919050565b612a32816128a8565b82525050565b600081519050919050565b600082825260208201905092915050565b60005b83811015612a72578082015181840152602081019050612a57565b60008484015250505050565b6000601f19601f8301169050919050565b6000612a9a82612a38565b612aa48185612a43565b9350612ab4818560208601612a54565b612abd81612a7e565b840191505092915050565b60008115159050919050565b612add81612ac8565b82525050565b600082825260208201905092915050565b6000612aff82612913565b612b098185612ae3565b9350612b148361292f565b8060005b83811015612b45578151612b2c8882612958565b9750612b3783612970565b925050600181019050612b18565b5085935050505092915050565b600061012083016000830151612b6b6000860182612949565b506020830151612b7e6020860182612a29565b5060408301518482036040860152612b968282612a8f565b91505060608301518482036060860152612bb08282612a8f565b91505060808301518482036080860152612bca8282612a8f565b91505060a0830151612bdf60a0860182612949565b5060c0830151612bf260c0860182612949565b5060e0830151612c0560e0860182612ad4565b50610100830151848203610100860152612c1f8282612af4565b9150508091505092915050565b6000612c388383612b52565b905092915050565b6000602082019050919050565b6000612c58826129fd565b612c628185612a08565b935083602082028501612c7485612a19565b8060005b85811015612cb05784840389528151612c918582612c2c565b9450612c9c83612c40565b925060208a01995050600181019050612c78565b50829750879550505050505092915050565b60006020820190508181036000830152612cdc8184612c4d565b905092915050565b600080fd5b600080fd5b7f4e487b7100000000000000000000000000000000000000000000000000000000600052604160045260246000fd5b612d2682612a7e565b810181811067ffffffffffffffff82111715612d4557612d44612cee565b5b80604052505050565b6000612d58612874565b9050612d648282612d1d565b919050565b600067ffffffffffffffff821115612d8457612d83612cee565b5b612d8d82612a7e565b9050602081019050919050565b82818337600083830152505050565b6000612dbc612db784612d69565b612d4e565b905082815260208101848484011115612dd857612dd7612ce9565b5b612de3848285612d9a565b509392505050565b600082601f830112612e0057612dff612ce4565b5b8135612e10848260208601612da9565b91505092915050565b612e228161293f565b8114612e2d57600080fd5b50565b600081359050612e3f81612e19565b92915050565b600080600080600060a08688031215612e6157612e6061287e565b5b600086013567ffffffffffffffff811115612e7f57612e7e612883565b5b612e8b88828901612deb565b955050602086013567ffffffffffffffff811115612eac57612eab612883565b5b612eb888828901612deb565b945050604086013567ffffffffffffffff811115612ed957612ed8612883565b5b612ee588828901612deb565b9350506060612ef688828901612e30565b9250506080612f0788828901612e30565b9150509295509295909350565b612f1d8161293f565b82525050565b6000602082019050612f386000830184612f14565b92915050565b600060208284031215612f5457612f5361287e565b5b6000612f6284828501612e30565b91505092915050565b60006040820190508181036000830152612f85818561297d565b90508181036020830152612f99818461297d565b90509392505050565b7f4e487b7100000000000000000000000000000000000000000000000000000000600052602160045260246000fd5b60038110612fe257612fe1612fa2565b5b50565b6000819050612ff382612fd1565b919050565b600061300382612fe5565b9050919050565b61301381612ff8565b82525050565b610100820160008201516130306000850182612949565b5060208201516130436020850182612949565b5060408201516130566040850182612a29565b5060608201516130696060850182612949565b50608082015161307c6080850182612949565b5060a082015161308f60a0850182612949565b5060c08201516130a260c0850182612949565b5060e08201516130b560e085018261300a565b50505050565b6000610100820190506130d16000830184613019565b92915050565b6000610120830160008301516130f06000860182612949565b5060208301516131036020860182612a29565b506040830151848203604086015261311b8282612a8f565b915050606083015184820360608601526131358282612a8f565b9150506080830151848203608086015261314f8282612a8f565b91505060a083015161316460a0860182612949565b5060c083015161317760c0860182612949565b5060e083015161318a60e0860182612ad4565b506101008301518482036101008601526131a48282612af4565b9150508091505092915050565b600060208201905081810360008301526131cb81846130d7565b905092915050565b6000806000606084860312156131ec576131eb61287e565b5b60006131fa86828701612e30565b935050602061320b86828701612e30565b925050604061321c86828701612e30565b9150509250925092565b61322f81612ac8565b82525050565b600060208201905061324a6000830184613226565b92915050565b613259816128a8565b82525050565b61326881612ff8565b82525050565b600061010082019050613284600083018b612f14565b613291602083018a612f14565b61329e6040830189613250565b6132ab6060830188612f14565b6132b86080830187612f14565b6132c560a0830186612f14565b6132d260c0830185612f14565b6132df60e083018461325f565b9998505050505050505050565b600082825260208201905092915050565b600061330882612a38565b61331281856132ec565b9350613322818560208601612a54565b61332b81612a7e565b840191505092915050565b60006101008201905061334c600083018b612f14565b613359602083018a613250565b818103604083015261336b81896132fd565b9050818103606083015261337f81886132fd565b9050818103608083015261339381876132fd565b90506133a260a0830186612f14565b6133af60c0830185612f14565b6133bc60e0830184613226565b9998505050505050505050565b7f4e487b7100000000000000000000000000000000000000000000000000000000600052603260045260246000fd5b7f4e487b7100000000000000000000000000000000000000000000000000000000600052601160045260246000fd5b60006134328261293f565b91507fffffffffffffffffffffffffffffffffffffffffffffffffffffffffffffffff8203613464576134636133f8565b5b600182019050919050565b7f4e487b7100000000000000000000000000000000000000000000000000000000600052602260045260246000fd5b600060028204905060018216806134b657607f821691505b6020821081036134c9576134c861346f565b5b50919050565b7f5469746c65207265717569726564000000000000000000000000000000000000600082015250565b6000613505600e836132ec565b9150613510826134cf565b602082019050919050565b60006020820190508181036000830152613534816134f8565b9050919050565b7f4c6f636174696f6e207265717569726564000000000000000000000000000000600082015250565b60006135716011836132ec565b915061357c8261353b565b602082019050919050565b600060208201905081810360008301526135a081613564565b9050919050565b7f5072696365206d7573742062652067726561746572207468616e203000000000600082015250565b60006135dd601c836132ec565b91506135e8826135a7565b602082019050919050565b6000602082019050818103600083015261360c816135d0565b9050919050565b60008190508160005260206000209050919050565b60006020601f8301049050919050565b600082821b905092915050565b6000600883026136757fffffffffffffffffffffffffffffffffffffffffffffffffffffffffffffffff82613638565b61367f8683613638565b95508019841693508086168417925050509392505050565b6000819050919050565b60006136bc6136b76136b28461293f565b613697565b61293f565b9050919050565b6000819050919050565b6136d6836136a1565b6136ea6136e2826136c3565b848454613645565b825550505050565b600090565b6136ff6136f2565b61370a8184846136cd565b505050565b5b8181101561372e576137236000826136f7565b600181019050613710565b5050565b601f8211156137735761374481613613565b61374d84613628565b8101602085101561375c578190505b61377061376885613628565b83018261370f565b50505b505050565b600082821c905092915050565b600061379660001984600802613778565b1980831691505092915050565b60006137af8383613785565b9150826002028217905092915050565b6137c882612a38565b67ffffffffffffffff8111156137e1576137e0612cee565b5b6137eb825461349e565b6137f6828285613732565b600060209050601f8311600181146138295760008415613817578287015190505b61382185826137a3565b865550613889565b601f19841661383786613613565b60005b8281101561385f5784890151825560018201915060208501945060208101905061383a565b8683101561387c5784890151613878601f891682613785565b8355505b6001600288020188555050505b505050505050565b600060408201905081810360008301526138ab81856132fd565b90506138ba6020830184612f14565b9392505050565b7f50726f706572747920646f6573206e6f74206578697374000000000000000000600082015250565b60006138f76017836132ec565b9150613902826138c1565b602082019050919050565b60006020820190508181036000830152613926816138ea565b9050919050565b7f52656e74616c20646f6573206e6f742065786973740000000000000000000000600082015250565b60006139636015836132ec565b915061396e8261392d565b602082019050919050565b6000602082019050818103600083015261399281613956565b9050919050565b7f52656e74616c206e6f7420616374697665000000000000000000000000000000600082015250565b60006139cf6011836132ec565b91506139da82613999565b602082019050919050565b600060208201905081810360008301526139fe816139c2565b9050919050565b7f4e6f7420617574686f72697a6564000000000000000000000000000000000000600082015250565b6000613a3b600e836132ec565b9150613a4682613a05565b602082019050919050565b60006020820190508181036000830152613a6a81613a2e565b9050919050565b7f4e6f742070726f7065727479206f776e65720000000000000000000000000000600082015250565b6000613aa76012836132ec565b9150613ab282613a71565b602082019050919050565b60006020820190508181036000830152613ad681613a9a565b9050919050565b7f50726f7065727479206e6f742061637469766500000000000000000000000000600082015250565b6000613b136013836132ec565b9150613b1e82613add565b602082019050919050565b60006020820190508181036000830152613b4281613b06565b9050919050565b7f53746172742064617465206d75737420626520696e2066757475726500000000600082015250565b6000613b7f601c836132ec565b9150613b8a82613b49565b602082019050919050565b60006020820190508181036000830152613bae81613b72565b9050919050565b7f456e642064617465206d7573742062652061667465722073746172742064617460008201527f6500000000000000000000000000000000000000000000000000000000000000602082015250565b6000613c116021836132ec565b9150613c1c82613bb5565b604082019050919050565b60006020820190508181036000830152613c4081613c04565b9050919050565b7f446174657320636f6e666c6963742077697468206578697374696e672072656e60008201527f74616c0000000000000000000000000000000000000000000000000000000000602082015250565b6000613ca36023836132ec565b9150613cae82613c47565b604082019050919050565b60006020820190508181036000830152613cd281613c96565b9050919050565b6000604082019050613cee6000830185612f14565b613cfb6020830184612f14565b9392505050565b7f52656e74616c20706572696f64206e6f7420656e646564000000000000000000600082015250565b6000613d386017836132ec565b9150613d4382613d02565b602082019050919050565b60006020820190508181036000830152613d6781613d2b565b9050919050565b7f43616e6e6f742072656e74206f776e2070726f70657274790000000000000000600082015250565b6000613da46018836132ec565b9150613daf82613d6e565b602082019050919050565b60006020820190508181036000830152613dd381613d97565b9050919050565b6000613de58261293f565b9150613df08361293f565b9250828203905081811115613e0857613e076133f8565b5b92915050565b7f4e487b7100000000000000000000000000000000000000000000000000000000600052601260045260246000fd5b6000613e488261293f565b9150613e538361293f565b925082613e6357613e62613e0e565b5b828204905092915050565b6000613e798261293f565b9150613e848361293f565b9250828202613e928161293f565b91508282048414831517613ea957613ea86133f8565b5b5092915050565b6000613ebb8261293f565b9150613ec68361293f565b9250828201905080821115613ede57613edd6133f8565b5b92915050565b7f496e73756666696369656e74207061796d656e74000000000000000000000000600082015250565b6000613f1a6014836132ec565b9150613f2582613ee4565b602082019050919050565b60006020820190508181036000830152613f4981613f0d565b905091905056fea26469706673582212203b524484b15b39423df98faa818a51585b2e858513935a1b275208885186d3e064736f6c63430008130033",
  "linkReferences": {},
  "deployedLinkReferences": {}
}