{
  "_format": "hh-sol-artifact-1",
  "contractName": "RealEstateRental",
  "sourceName": "contracts/RentalEscrow.sol",
  "abi": [
    {
      "anonymous": false,
      "inputs": [
        {
          "indexed": true,
          "internalType": "uint256",
          "name": "propertyId",
          "type": "uint256"
        }
      ],
      "name": "PropertyDeactivated",
      "type": "event"
    },
    {
      "anonymous": false,
      "inputs": [
        {
          "indexed": true,
          "internalType": "uint256",
          "name": "propertyId",
          "type": "uint256"
        },
        {
          "indexed": true,
          "internalType": "address",
          "name": "owner",
          "type": "address"
        },
        {
          "indexed": false,
          "internalType": "string",
          "name": "title",
          "type": "string"
        },
        {
          "indexed": false,
          "internalType": "uint256",
          "name": "pricePerDay",
          "type": "uint256"
        }
      ],
      "name": "PropertyListed",
      "type": "event"
    },
    {
      "anonymous": false,
      "inputs": [
        {
          "indexed": true,
          "internalType": "uint256",
          "name": "propertyId",
          "type": "uint256"
        },
        {
          "indexed": false,
          "internalType": "uint256",
          "name": "pricePerDay",
          "type": "uint256"
        },
        {
          "indexed": false,
          "internalType": "uint256",
          "name": "deposit",
          "type": "uint256"
        }
      ],
      "name": "PropertyUpdated",
      "type": "event"
    },
    {
      "anonymous": false,
      "inputs": [
        {
          "indexed": true,
          "internalType": "uint256",
          "name": "rentalId",
          "type": "uint256"
        },
        {
          "indexed": true,
          "internalType": "address",
          "name": "cancelledBy",
          "type": "address"
        },
        {
          "indexed": false,
          "internalType": "uint256",
          "name": "refundAmount",
          "type": "uint256"
        }
      ],
      "name": "RentalCancelled",
      "type": "event"
    },
    {
      "anonymous": false,
      "inputs": [
        {
          "indexed": true,
          "internalType": "uint256",
          "name": "rentalId",
          "type": "uint256"
        },
        {
          "indexed": true,
          "internalType": "address",
          "name": "tenant",
          "type": "address"
        }
      ],
      "name": "RentalCompleted",
      "type": "event"
    },
    {
      "anonymous": false,
      "inputs": [
        {
          "indexed": true,
          "internalType": "uint256",
          "name": "rentalId",
          "type": "uint256"
        },
        {
          "indexed": true,
          "internalType": "uint256",
          "name": "propertyId",
          "type": "uint256"
        },
        {
          "indexed": true,
          "internalType": "address",
          "name": "tenant",
          "type": "address"
        },
        {
          "indexed": false,
          "internalType": "uint256",
          "name": "startDate",
          "type": "uint256"
        },
        {
          "indexed": false,
          "internalType": "uint256",
          "name": "endDate",
          "type": "uint256"
        }
      ],
      "name": "RentalCreated",
      "type": "event"
    },
    {
      "inputs": [
        {
          "internalType": "uint256",
          "name": "_propertyId",
          "type": "uint256"
        },
        {
          "internalType": "uint256",
          "name": "_startDate",
          "type": "uint256"
        },
        {
          "internalType": "uint256",
          "name": "_endDate",
          "type": "uint256"
        }
      ],
      "name": "blockDates",
      "outputs": [
        {
          "internalType": "uint256",
          "name": "",
          "type": "uint256"
        }
      ],
      "stateMutability": "nonpayable",
      "type": "function"
    },
    {
      "inputs": [
        {
          "internalType": "uint256",
          "name": "_rentalId",
          "type": "uint256"
        }
      ],
      "name": "cancelRental",
      "outputs": [],
      "stateMutability": "nonpayable",
      "type": "function"
    },
    {
      "inputs": [
        {
          "internalType": "uint256",
          "name": "_rentalId",
          "type": "uint256"
        }
      ],
      "name": "completeRental",
      "outputs": [],
      "stateMutability": "nonpayable",
      "type": "function"
    },
    {
      "inputs": [],
      "name": "getAvailableProperties",
      "outputs": [
        {
          "components": [
            {
              "internalType": "uint256",
              "name": "id",
              "type": "uint256"
            },
            {
              "internalType": "address",
              "name": "owner",
              "type": "address"
            },
            {
              "internalType": "string",
              "name": "title",
              "type": "string"
            },
            {
              "internalType": "string",
              "name": "description",
              "type": "string"
            },
            {
              "internalType": "string",
              "name": "location",
              "type": "string"
            },
            {
              "internalType": "uint256",
              "name": "pricePerDay",
              "type": "uint256"
            },
            {
              "internalType": "uint256",
              "name": "deposit",
              "type": "uint256"
            },
            {
              "internalType": "bool",
              "name": "isActive",
              "type": "bool"
            },
            {
              "internalType": "uint256[]",
              "name": "rentalIds",
              "type": "uint256[]"
            }
          ],
          "internalType": "struct RealEstateRental.Property[]",
          "name": "",
          "type": "tuple[]"
        }
      ],
      "stateMutability": "view",
      "type": "function"
    },
    {
      "inputs": [
        {
          "internalType": "uint256",
          "name": "_propertyId",
          "type": "uint256"
        }
      ],
      "name": "getBookedDates",
      "outputs": [
        {
          "internalType": "uint256[]",
          "name": "startDates",
          "type": "uint256[]"
        },
        {
          "internalType": "uint256[]",
          "name": "endDates",
          "type": "uint256[]"
        }
      ],
      "stateMutability": "view",
      "type": "function"
    },
    {
      "inputs": [
        {
          "internalType": "uint256",
          "name": "_propertyId",
          "type": "uint256"
        }
      ],
      "name": "getProperty",
      "outputs": [
        {
          "components": [
            {
              "internalType": "uint256",
              "name": "id",
              "type": "uint256"
            },
            {
              "internalType": "address",
              "name": "owner",
              "type": "address"
            },
            {
              "internalType": "string",
              "name": "title",
              "type": "string"
            },
            {
              "internalType": "string",
              "name": "description",
              "type": "string"
            },
            {
              "internalType": "string",
              "name": "location",
              "type": "string"
            },
            {
              "internalType": "uint256",
              "name": "pricePerDay",
              "type": "uint256"
            },
            {
              "internalType": "uint256",
              "name": "deposit",
              "type": "uint256"
            },
            {
              "internalType": "bool",
              "name": "isActive",
              "type": "bool"
            },
            {
              "internalType": "uint256[]",
              "name": "rentalIds",
              "type": "uint256[]"
            }
          ],
          "internalType": "struct RealEstateRental.Property",
          "name": "",
          "type": "tuple"
        }
      ],
      "stateMutability": "view",
      "type": "function"
    },
    {
      "inputs": [
        {
          "internalType": "uint256",
          "name": "_rentalId",
          "type": "uint256"
        }
      ],
      "name": "getRentalAgreement",
      "outputs": [
        {
          "components": [
            {
              "internalType": "uint256",
              "name": "id",
              "type": "uint256"
            },
            {
              "internalType": "uint256",
              "name": "propertyId",
              "type": "uint256"
            },
            {
              "internalType": "address",
              "name": "tenant",
              "type": "address"
            },
            {
              "internalType": "uint256",
              "name": "startDate",
              "type": "uint256"
            },
            {
              "internalType": "uint256",
              "name": "endDate",
              "type": "uint256"
            },
            {
              "internalType": "uint256",
              "name": "totalPrice",
              "type": "uint256"
            },
            {
              "internalType": "uint256",
              "name": "deposit",
              "type": "uint256"
            },
            {
              "internalType": "enum RealEstateRental.RentalStatus",
              "name": "status",
              "type": "uint8"
            }
          ],
          "internalType": "struct RealEstateRental.RentalAgreement",
          "name": "",
          "type": "tuple"
        }
      ],
      "stateMutability": "view",
      "type": "function"
    },
    {
      "inputs": [
        {
          "internalType": "address",
          "name": "_user",
          "type": "address"
        }
      ],
      "name": "getUserProperties",
      "outputs": [
        {
          "internalType": "uint256[]",
          "name": "",
          "type": "uint256[]"
        }
      ],
      "stateMutability": "view",
      "type": "function"
    },
    {
      "inputs": [
        {
          "internalType": "address",
          "name": "_user",
          "type": "address"
        }
      ],
      "name": "getUserRentals",
      "outputs": [
        {
          "internalType": "uint256[]",
          "name": "",
          "type": "uint256[]"
        }
      ],
      "stateMutability": "view",
      "type": "function"
    },
    {
      "inputs": [
        {
          "internalType": "uint256",
          "name": "_propertyId",
          "type": "uint256"
        },
        {
          "internalType": "uint256",
          "name": "_startDate",
          "type": "uint256"
        },
        {
          "internalType": "uint256",
          "name": "_endDate",
          "type": "uint256"
        }
      ],
      "name": "hasDateConflict",
      "outputs": [
        {
          "internalType": "bool",
          "name": "",
          "type": "bool"
        }
      ],
      "stateMutability": "view",
      "type": "function"
    },
    {
      "inputs": [
        {
          "internalType": "uint256",
          "name": "_propertyId",
          "type": "uint256"
        },
        {
          "internalType": "uint256",
          "name": "_startDate",
          "type": "uint256"
        },
        {
          "internalType": "uint256",
          "name": "_endDate",
          "type": "uint256"
        }
      ],
      "name": "isAvailableForDates",
      "outputs": [
        {
          "internalType": "bool",
          "name": "",
          "type": "bool"
        }
      ],
      "stateMutability": "view",
      "type": "function"
    },
    {
      "inputs": [
        {
          "internalType": "string",
          "name": "_title",
          "type": "string"
        },
        {
          "internalType": "string",
          "name": "_description",
          "type": "string"
        },
        {
          "internalType": "string",
          "name": "_location",
          "type": "string"
        },
        {
          "internalType": "uint256",
          "name": "_pricePerDay",
          "type": "uint256"
        },
        {
          "internalType": "uint256",
          "name": "_deposit",
          "type": "uint256"
        }
      ],
      "name": "listProperty",
      "outputs": [
        {
          "internalType": "uint256",
          "name": "",
          "type": "uint256"
        }
      ],
      "stateMutability": "nonpayable",
      "type": "function"
    },
    {
      "inputs": [
        {
          "internalType": "uint256",
          "name": "",
          "type": "uint256"
        }
      ],
      "name": "properties",
      "outputs": [
        {
          "internalType": "uint256",
          "name": "id",
          "type": "uint256"
        },
        {
          "internalType": "address",
          "name": "owner",
          "type": "address"
        },
        {
          "internalType": "string",
          "name": "title",
          "type": "string"
        },
        {
          "internalType": "string",
          "name": "description",
          "type": "string"
        },
        {
          "internalType": "string",
          "name": "location",
          "type": "string"
        },
        {
          "internalType": "uint256",
          "name": "pricePerDay",
          "type": "uint256"
        },
        {
          "internalType": "uint256",
          "name": "deposit",
          "type": "uint256"
        },
        {
          "internalType": "bool",
          "name": "isActive",
          "type": "bool"
        }
      ],
      "stateMutability": "view",
      "type": "function"
    },
    {
      "inputs": [
        {
          "internalType": "uint256",
          "name": "_propertyId",
          "type": "uint256"
        },
        {
          "internalType": "uint256",
          "name": "_startDate",
          "type": "uint256"
        },
        {
          "internalType": "uint256",
          "name": "_endDate",
          "type": "uint256"
        }
      ],
      "name": "rentProperty",
      "outputs": [
        {
          "internalType": "uint256",
          "name": "",
          "type": "uint256"
        }
      ],
      "stateMutability": "payable",
      "type": "function"
    },
    {
      "inputs": [
        {
          "internalType": "uint256",
          "name": "",
          "type": "uint256"
        }
      ],
      "name": "rentals",
      "outputs": [
        {
          "internalType": "uint256",
          "name": "id",
          "type": "uint256"
        },
        {
          "internalType": "uint256",
          "name": "propertyId",
          "type": "uint256"
        },
        {
          "internalType": "address",
          "name": "tenant",
          "type": "address"
        },
        {
          "internalType": "uint256",
          "name": "startDate",
          "type": "uint256"
        },
        {
          "internalType": "uint256",
          "name": "endDate",
          "type": "uint256"
        },
        {
          "internalType": "uint256",
          "name": "totalPrice",
          "type": "uint256"
        },
        {
          "internalType": "uint256",
          "name": "deposit",
          "type": "uint256"
        },
        {
          "internalType": "enum RealEstateRental.RentalStatus",
          "name": "status",
          "type": "uint8"
        }
      ],
      "stateMutability": "view",
      "type": "function"
    }
  ],
  "bytecode": "0x608060405234801561001057600080fd5b50613ff8806100206000396000f3fe6080604052600436106100e85760003560e01c80635e0dacb41161008a578063af94a1d111610059578063af94a1d114610353578063bf621bc314610397578063d2da7c71146103d4578063f7b1080814610404576100e8565b80635e0dacb41461028757806364c655ed146102b0578063880484d2146102ed578063896f018f1461032a576100e8565b806316c34f23116100c657806316c34f231461019257806318a8a6cf146101d057806332665ffb1461020d5780633b6702a11461024a576100e8565b8063060a3e61146100ed57806306d88bbf1461012a5780631265d84714610155575b600080fd5b3480156100f957600080fd5b50610114600480360381019061010f9190612958565b610448565b6040516101219190612a4d565b60405180910390f35b34801561013657600080fd5b5061013f6104df565b60405161014c9190612d34565b60405180910390f35b34801561016157600080fd5b5061017c60048036038101906101779190612eb7565b610918565b6040516101899190612f95565b60405180910390f35b34801561019e57600080fd5b506101b960048036038101906101b49190612fb0565b610bb7565b6040516101c7929190612fdd565b60405180910390f35b3480156101dc57600080fd5b506101f760048036038101906101f29190612fb0565b610e62565b604051610204919061312d565b60405180910390f35b34801561021957600080fd5b50610234600480360381019061022f9190612fb0565b610fb8565b6040516102419190613223565b60405180910390f35b34801561025657600080fd5b50610271600480360381019061026c9190612958565b6112de565b60405161027e9190612a4d565b60405180910390f35b34801561029357600080fd5b506102ae60048036038101906102a99190612fb0565b611375565b005b3480156102bc57600080fd5b506102d760048036038101906102d29190613245565b61175f565b6040516102e491906132a7565b60405180910390f35b3480156102f957600080fd5b50610314600480360381019061030f9190613245565b6117fd565b6040516103219190612f95565b60405180910390f35b34801561033657600080fd5b50610351600480360381019061034c9190612fb0565b611c06565b005b34801561035f57600080fd5b5061037a60048036038101906103759190612fb0565b611f55565b60405161038e9897969594939291906132e0565b60405180910390f35b3480156103a357600080fd5b506103be60048036038101906103b99190613245565b611fca565b6040516103cb91906132a7565b60405180910390f35b6103ee60048036038101906103e99190613245565b6120b2565b6040516103fb9190612f95565b60405180910390f35b34801561041057600080fd5b5061042b60048036038101906104269190612fb0565b612608565b60405161043f9897969594939291906133a8565b60405180910390f35b6060600460008373ffffffffffffffffffffffffffffffffffffffff1673ffffffffffffffffffffffffffffffffffffffff1681526020019081526020016000208054806020026020016040519081016040528092919081815260200182805480156104d357602002820191906000526020600020905b8154815260200190600101908083116104bf575b50505050509050919050565b60606000805b60068054905081101561055b57600260006006838154811061050a5761050961343b565b5b9060005260206000200154815260200190815260200160002060070160009054906101000a900460ff161561054857818061054490613499565b9250505b808061055390613499565b9150506104e5565b5060008167ffffffffffffffff81111561057857610577612d60565b5b6040519080825280602002602001820160405280156105b157816020015b61059e612815565b8152602001906001900390816105965790505b5090506000805b60068054905081101561090e576000600682815481106105db576105da61343b565b5b906000526020600020015490506002600082815260200190815260200160002060070160009054906101000a900460ff16156108fa576002600082815260200190815260200160002060405180610120016040529081600082015481526020016001820160009054906101000a900473ffffffffffffffffffffffffffffffffffffffff1673ffffffffffffffffffffffffffffffffffffffff1673ffffffffffffffffffffffffffffffffffffffff1681526020016002820180546106a090613510565b80601f01602080910402602001604051908101604052809291908181526020018280546106cc90613510565b80156107195780601f106106ee57610100808354040283529160200191610719565b820191906000526020600020905b8154815290600101906020018083116106fc57829003601f168201915b5050505050815260200160038201805461073290613510565b80601f016020809104026020016040519081016040528092919081815260200182805461075e90613510565b80156107ab5780601f10610780576101008083540402835291602001916107ab565b820191906000526020600020905b81548152906001019060200180831161078e57829003601f168201915b505050505081526020016004820180546107c490613510565b80601f01602080910402602001604051908101604052809291908181526020018280546107f090613510565b801561083d5780601f106108125761010080835404028352916020019161083d565b820191906000526020600020905b81548152906001019060200180831161082057829003601f168201915b5050505050815260200160058201548152602001600682015481526020016007820160009054906101000a900460ff16151515158152602001600882018054806020026020016040519081016040528092919081815260200182805480156108c457602002820191906000526020600020905b8154815260200190600101908083116108b0575b5050505050815250508484815181106108e0576108df61343b565b5b602002602001018190525082806108f690613499565b9350505b50808061090690613499565b9150506105b8565b5081935050505090565b60008086511161095d576040517f08c379a00000000000000000000000000000000000000000000000000000000081526004016109549061358d565b60405180910390fd5b60008451116109a1576040517f08c379a0000000000000000000000000000000000000000000000000000000008152600401610998906135f9565b60405180910390fd5b600083116109e4576040517f08c379a00000000000000000000000000000000000000000000000000000000081526004016109db90613665565b60405180910390fd5b6000808154809291906109f690613499565b91905055506000805490506000600260008381526020019081526020016000209050818160000181905550338160010160006101000a81548173ffffffffffffffffffffffffffffffffffffffff021916908373ffffffffffffffffffffffffffffffffffffffff16021790555087816002019081610a759190613831565b5086816003019081610a879190613831565b5085816004019081610a999190613831565b5084816005018190555083816006018190555060018160070160006101000a81548160ff021916908315150217905550600460003373ffffffffffffffffffffffffffffffffffffffff1673ffffffffffffffffffffffffffffffffffffffff16815260200190815260200160002082908060018154018082558091505060019003906000526020600020016000909190919091505560068290806001815401808255809150506001900390600052602060002001600090919091909150553373ffffffffffffffffffffffffffffffffffffffff16827f4faf3c72065aaaddb6b745e48ea5a8933818b2a856fb6b21dd04b6ac9812b0428a88604051610ba1929190613903565b60405180910390a3819250505095945050505050565b606080826000600260008381526020019081526020016000206000015403610c14576040517f08c379a0000000000000000000000000000000000000000000000000000000008152600401610c0b9061397f565b60405180910390fd5b60006002600086815260200190815260200160002090506000805b8260080180549050811015610ccf5760006002811115610c5257610c51613014565b5b60036000856008018481548110610c6c57610c6b61343b565b5b9060005260206000200154815260200190815260200160002060070160009054906101000a900460ff166002811115610ca857610ca7613014565b5b03610cbc578180610cb890613499565b9250505b8080610cc790613499565b915050610c2f565b508067ffffffffffffffff811115610cea57610ce9612d60565b5b604051908082528060200260200182016040528015610d185781602001602082028036833780820191505090505b5094508067ffffffffffffffff811115610d3557610d34612d60565b5b604051908082528060200260200182016040528015610d635781602001602082028036833780820191505090505b5093506000805b8360080180549050811015610e5857600060036000866008018481548110610d9557610d9461343b565b5b90600052602060002001548152602001908152602001600020905060006002811115610dc457610dc3613014565b5b8160070160009054906101000a900460ff166002811115610de857610de7613014565b5b03610e44578060030154888481518110610e0557610e0461343b565b5b6020026020010181815250508060040154878481518110610e2957610e2861343b565b5b6020026020010181815250508280610e4090613499565b9350505b508080610e5090613499565b915050610d6a565b5050505050915091565b610e6a612879565b816000600360008381526020019081526020016000206000015403610ec4576040517f08c379a0000000000000000000000000000000000000000000000000000000008152600401610ebb906139eb565b60405180910390fd5b600360008481526020019081526020016000206040518061010001604052908160008201548152602001600182015481526020016002820160009054906101000a900473ffffffffffffffffffffffffffffffffffffffff1673ffffffffffffffffffffffffffffffffffffffff1673ffffffffffffffffffffffffffffffffffffffff168152602001600382015481526020016004820154815260200160058201548152602001600682015481526020016007820160009054906101000a900460ff166002811115610f9a57610f99613014565b5b6002811115610fac57610fab613014565b5b81525050915050919050565b610fc0612815565b81600060026000838152602001908152602001600020600001540361101a576040517f08c379a00000000000000000000000000000000000000000000000000000000081526004016110119061397f565b60405180910390fd5b6002600084815260200190815260200160002060405180610120016040529081600082015481526020016001820160009054906101000a900473ffffffffffffffffffffffffffffffffffffffff1673ffffffffffffffffffffffffffffffffffffffff1673ffffffffffffffffffffffffffffffffffffffff1681526020016002820180546110a990613510565b80601f01602080910402602001604051908101604052809291908181526020018280546110d590613510565b80156111225780601f106110f757610100808354040283529160200191611122565b820191906000526020600020905b81548152906001019060200180831161110557829003601f168201915b5050505050815260200160038201805461113b90613510565b80601f016020809104026020016040519081016040528092919081815260200182805461116790613510565b80156111b45780601f10611189576101008083540402835291602001916111b4565b820191906000526020600020905b81548152906001019060200180831161119757829003601f168201915b505050505081526020016004820180546111cd90613510565b80601f01602080910402602001604051908101604052809291908181526020018280546111f990613510565b80156112465780601f1061121b57610100808354040283529160200191611246565b820191906000526020600020905b81548152906001019060200180831161122957829003601f168201915b5050505050815260200160058201548152602001600682015481526020016007820160009054906101000a900460ff16151515158152602001600882018054806020026020016040519081016040528092919081815260200182805480156112cd57602002820191906000526020600020905b8154815260200190600101908083116112b9575b505050505081525050915050919050565b6060600560008373ffffffffffffffffffffffffffffffffffffffff1673ffffffffffffffffffffffffffffffffffffffff16815260200190815260200160002080548060200260200160405190810160405280929190818152602001828054801561136957602002820191906000526020600020905b815481526020019060010190808311611355575b50505050509050919050565b8060006003600083815260200190815260200160002060000154036113cf576040517f08c379a00000000000000000000000000000000000000000000000000000000081526004016113c6906139eb565b60405180910390fd5b60006003600084815260200190815260200160002090506000600260008360010154815260200190815260200160002090506000600281111561141557611414613014565b5b8260070160009054906101000a900460ff16600281111561143957611438613014565b5b14611479576040517f08c379a000000000000000000000000000000000000000000000000000000000815260040161147090613a57565b60405180910390fd5b8060010160009054906101000a900473ffffffffffffffffffffffffffffffffffffffff1673ffffffffffffffffffffffffffffffffffffffff163373ffffffffffffffffffffffffffffffffffffffff16148061152657508160020160009054906101000a900473ffffffffffffffffffffffffffffffffffffffff1673ffffffffffffffffffffffffffffffffffffffff163373ffffffffffffffffffffffffffffffffffffffff16145b611565576040517f08c379a000000000000000000000000000000000000000000000000000000000815260040161155c90613ac3565b60405180910390fd5b60028260070160006101000a81548160ff0219169083600281111561158d5761158c613014565b5b02179055506000826006015490508160010160009054906101000a900473ffffffffffffffffffffffffffffffffffffffff1673ffffffffffffffffffffffffffffffffffffffff163373ffffffffffffffffffffffffffffffffffffffff1603611605578260050154816116029190613ae3565b90505b826003015442101561168b576000811115611686578260020160009054906101000a900473ffffffffffffffffffffffffffffffffffffffff1673ffffffffffffffffffffffffffffffffffffffff166108fc829081150290604051600060405180830381858888f19350505050158015611684573d6000803e3d6000fd5b505b611709565b600083600601541115611708578160010160009054906101000a900473ffffffffffffffffffffffffffffffffffffffff1673ffffffffffffffffffffffffffffffffffffffff166108fc84600601549081150290604051600060405180830381858888f19350505050158015611706573d6000803e3d6000fd5b505b5b3373ffffffffffffffffffffffffffffffffffffffff16857f8e5451389e92e46e3ab85110d65acde7ac22919df8dd6df438d70b3188cace62836040516117509190612f95565b60405180910390a35050505050565b60008360006002600083815260200190815260200160002060000154036117bb576040517f08c379a00000000000000000000000000000000000000000000000000000000081526004016117b29061397f565b60405180910390fd5b6002600086815260200190815260200160002060070160009054906101000a900460ff1680156117f357506117f1858585611fca565b155b9150509392505050565b6000836000600260008381526020019081526020016000206000015403611859576040517f08c379a00000000000000000000000000000000000000000000000000000000081526004016118509061397f565b60405180910390fd5b843373ffffffffffffffffffffffffffffffffffffffff166002600083815260200190815260200160002060010160009054906101000a900473ffffffffffffffffffffffffffffffffffffffff1673ffffffffffffffffffffffffffffffffffffffff16146118fe576040517f08c379a00000000000000000000000000000000000000000000000000000000081526004016118f590613b63565b60405180910390fd5b60006002600088815260200190815260200160002090508060070160009054906101000a900460ff16611966576040517f08c379a000000000000000000000000000000000000000000000000000000000815260040161195d90613bcf565b60405180910390fd5b428610156119a9576040517f08c379a00000000000000000000000000000000000000000000000000000000081526004016119a090613c3b565b60405180910390fd5b8585116119eb576040517f08c379a00000000000000000000000000000000000000000000000000000000081526004016119e290613ccd565b60405180910390fd5b6119f6878787611fca565b15611a36576040517f08c379a0000000000000000000000000000000000000000000000000000000008152600401611a2d90613d5f565b60405180910390fd5b60016000815480929190611a4990613499565b9190505550600060015490506000600360008381526020019081526020016000209050818160000181905550888160010181905550338160020160006101000a81548173ffffffffffffffffffffffffffffffffffffffff021916908373ffffffffffffffffffffffffffffffffffffffff160217905550878160030181905550868160040181905550600081600501819055506000816006018190555060008160070160006101000a81548160ff02191690836002811115611b0f57611b0e613014565b5b021790555082600801829080600181540180825580915050600190039060005260206000200160009091909190915055600560003373ffffffffffffffffffffffffffffffffffffffff1673ffffffffffffffffffffffffffffffffffffffff1681526020019081526020016000208290806001815401808255809150506001900390600052602060002001600090919091909150553373ffffffffffffffffffffffffffffffffffffffff1689837f4c5316b55ccb2da72bb535f58d04c5f2e2039ca52598e85f17f0875ae4b173c28b8b604051611bef929190613d7f565b60405180910390a481955050505050509392505050565b806000600360008381526020019081526020016000206000015403611c60576040517f08c379a0000000000000000000000000000000000000000000000000000000008152600401611c57906139eb565b60405180910390fd5b600060036000848152602001908152602001600020905060006002600083600101548152602001908152602001600020905060006002811115611ca657611ca5613014565b5b8260070160009054906101000a900460ff166002811115611cca57611cc9613014565b5b14611d0a576040517f08c379a0000000000000000000000000000000000000000000000000000000008152600401611d0190613a57565b60405180910390fd5b8060010160009054906101000a900473ffffffffffffffffffffffffffffffffffffffff1673ffffffffffffffffffffffffffffffffffffffff163373ffffffffffffffffffffffffffffffffffffffff161480611db757508160020160009054906101000a900473ffffffffffffffffffffffffffffffffffffffff1673ffffffffffffffffffffffffffffffffffffffff163373ffffffffffffffffffffffffffffffffffffffff16145b611df6576040517f08c379a0000000000000000000000000000000000000000000000000000000008152600401611ded90613ac3565b60405180910390fd5b8160040154421015611e3d576040517f08c379a0000000000000000000000000000000000000000000000000000000008152600401611e3490613df4565b60405180910390fd5b60018260070160006101000a81548160ff02191690836002811115611e6557611e64613014565b5b0217905550600082600601541115611ee7578160020160009054906101000a900473ffffffffffffffffffffffffffffffffffffffff1673ffffffffffffffffffffffffffffffffffffffff166108fc83600601549081150290604051600060405180830381858888f19350505050158015611ee5573d6000803e3d6000fd5b505b8160020160009054906101000a900473ffffffffffffffffffffffffffffffffffffffff1673ffffffffffffffffffffffffffffffffffffffff16847fc8891cc8407e9bc09a78421bd234c3fd57d71a2cc5f1ac6d5602070add66d0dd60405160405180910390a350505050565b60036020528060005260406000206000915090508060000154908060010154908060020160009054906101000a900473ffffffffffffffffffffffffffffffffffffffff16908060030154908060040154908060050154908060060154908060070160009054906101000a900460ff16905088565b60008060026000868152602001908152602001600020905060005b81600801805490508110156120a4576000600360008460080184815481106120105761200f61343b565b5b9060005260206000200154815260200190815260200160002090506000600281111561203f5761203e613014565b5b8160070160009054906101000a900460ff16600281111561206357612062613014565b5b036120905780600401548610801561207e5750806003015485115b1561208f57600193505050506120ab565b5b50808061209c90613499565b915050611fe5565b5060009150505b9392505050565b600083600060026000838152602001908152602001600020600001540361210e576040517f08c379a00000000000000000000000000000000000000000000000000000000081526004016121059061397f565b60405180910390fd5b60006002600087815260200190815260200160002090508060070160009054906101000a900460ff16612176576040517f08c379a000000000000000000000000000000000000000000000000000000000815260040161216d90613bcf565b60405180910390fd5b3373ffffffffffffffffffffffffffffffffffffffff168160010160009054906101000a900473ffffffffffffffffffffffffffffffffffffffff1673ffffffffffffffffffffffffffffffffffffffff1603612208576040517f08c379a00000000000000000000000000000000000000000000000000000000081526004016121ff90613e60565b60405180910390fd5b4285101561224b576040517f08c379a000000000000000000000000000000000000000000000000000000000815260040161224290613c3b565b60405180910390fd5b84841161228d576040517f08c379a000000000000000000000000000000000000000000000000000000000815260040161228490613ccd565b60405180910390fd5b612298868686611fca565b156122d8576040517f08c379a00000000000000000000000000000000000000000000000000000000081526004016122cf90613d5f565b60405180910390fd5b60006201518086866122ea9190613e80565b6122f49190613ee3565b90506000810361230357600190505b60008260050154826123159190613f14565b905060008360060154826123299190613ae3565b90508034101561236e576040517f08c379a000000000000000000000000000000000000000000000000000000000815260040161236590613fa2565b60405180910390fd5b6001600081548092919061238190613499565b91905055506000600154905060006003600083815260200190815260200160002090508181600001819055508a8160010181905550338160020160006101000a81548173ffffffffffffffffffffffffffffffffffffffff021916908373ffffffffffffffffffffffffffffffffffffffff1602179055508981600301819055508881600401819055508381600501819055508560060154816006018190555060008160070160006101000a81548160ff0219169083600281111561244957612448613014565b5b021790555085600801829080600181540180825580915050600190039060005260206000200160009091909190915055600560003373ffffffffffffffffffffffffffffffffffffffff1673ffffffffffffffffffffffffffffffffffffffff1681526020019081526020016000208290806001815401808255809150506001900390600052602060002001600090919091909150558560010160009054906101000a900473ffffffffffffffffffffffffffffffffffffffff1673ffffffffffffffffffffffffffffffffffffffff166108fc859081150290604051600060405180830381858888f19350505050158015612549573d6000803e3d6000fd5b50823411156125a5573373ffffffffffffffffffffffffffffffffffffffff166108fc84346125789190613e80565b9081150290604051600060405180830381858888f193505050501580156125a3573d6000803e3d6000fd5b505b3373ffffffffffffffffffffffffffffffffffffffff168b837f4c5316b55ccb2da72bb535f58d04c5f2e2039ca52598e85f17f0875ae4b173c28d8d6040516125ef929190613d7f565b60405180910390a4819750505050505050509392505050565b60026020528060005260406000206000915090508060000154908060010160009054906101000a900473ffffffffffffffffffffffffffffffffffffffff169080600201805461265790613510565b80601f016020809104026020016040519081016040528092919081815260200182805461268390613510565b80156126d05780601f106126a5576101008083540402835291602001916126d0565b820191906000526020600020905b8154815290600101906020018083116126b357829003601f168201915b5050505050908060030180546126e590613510565b80601f016020809104026020016040519081016040528092919081815260200182805461271190613510565b801561275e5780601f106127335761010080835404028352916020019161275e565b820191906000526020600020905b81548152906001019060200180831161274157829003601f168201915b50505050509080600401805461277390613510565b80601f016020809104026020016040519081016040528092919081815260200182805461279f90613510565b80156127ec5780601f106127c1576101008083540402835291602001916127ec565b820191906000526020600020905b8154815290600101906020018083116127cf57829003601f168201915b5050505050908060050154908060060154908060070160009054906101000a900460ff16905088565b60405180610120016040528060008152602001600073ffffffffffffffffffffffffffffffffffffffff1681526020016060815260200160608152602001606081526020016000815260200160008152602001600015158152602001606081525090565b6040518061010001604052806000815260200160008152602001600073ffffffffffffffffffffffffffffffffffffffff16815260200160008152602001600081526020016000815260200160008152602001600060028111156128e0576128df613014565b5b81525090565b6000604051905090565b600080fd5b600080fd5b600073ffffffffffffffffffffffffffffffffffffffff82169050919050565b6000612925826128fa565b9050919050565b6129358161291a565b811461294057600080fd5b50565b6000813590506129528161292c565b92915050565b60006020828403121561296e5761296d6128f0565b5b600061297c84828501612943565b91505092915050565b600081519050919050565b600082825260208201905092915050565b6000819050602082019050919050565b6000819050919050565b6129c4816129b1565b82525050565b60006129d683836129bb565b60208301905092915050565b6000602082019050919050565b60006129fa82612985565b612a048185612990565b9350612a0f836129a1565b8060005b83811015612a40578151612a2788826129ca565b9750612a32836129e2565b925050600181019050612a13565b5085935050505092915050565b60006020820190508181036000830152612a6781846129ef565b905092915050565b600081519050919050565b600082825260208201905092915050565b6000819050602082019050919050565b612aa48161291a565b82525050565b600081519050919050565b600082825260208201905092915050565b60005b83811015612ae4578082015181840152602081019050612ac9565b60008484015250505050565b6000601f19601f8301169050919050565b6000612b0c82612aaa565b612b168185612ab5565b9350612b26818560208601612ac6565b612b2f81612af0565b840191505092915050565b60008115159050919050565b612b4f81612b3a565b82525050565b600082825260208201905092915050565b6000612b7182612985565b612b7b8185612b55565b9350612b86836129a1565b8060005b83811015612bb7578151612b9e88826129ca565b9750612ba9836129e2565b925050600181019050612b8a565b5085935050505092915050565b600061012083016000830151612bdd60008601826129bb565b506020830151612bf06020860182612a9b565b5060408301518482036040860152612c088282612b01565b91505060608301518482036060860152612c228282612b01565b91505060808301518482036080860152612c3c8282612b01565b91505060a0830151612c5160a08601826129bb565b5060c0830151612c6460c08601826129bb565b5060e0830151612c7760e0860182612b46565b50610100830151848203610100860152612c918282612b66565b9150508091505092915050565b6000612caa8383612bc4565b905092915050565b6000602082019050919050565b6000612cca82612a6f565b612cd48185612a7a565b935083602082028501612ce685612a8b565b8060005b85811015612d225784840389528151612d038582612c9e565b9450612d0e83612cb2565b925060208a01995050600181019050612cea565b50829750879550505050505092915050565b60006020820190508181036000830152612d4e8184612cbf565b905092915050565b600080fd5b600080fd5b7f4e487b7100000000000000000000000000000000000000000000000000000000600052604160045260246000fd5b612d9882612af0565b810181811067ffffffffffffffff82111715612db757612db6612d60565b5b80604052505050565b6000612dca6128e6565b9050612dd68282612d8f565b919050565b600067ffffffffffffffff821115612df657612df5612d60565b5b612dff82612af0565b9050602081019050919050565b82818337600083830152505050565b6000612e2e612e2984612ddb565b612dc0565b905082815260208101848484011115612e4a57612e49612d5b565b5b612e55848285612e0c565b509392505050565b600082601f830112612e7257612e71612d56565b5b8135612e82848260208601612e1b565b91505092915050565b612e94816129b1565b8114612e9f57600080fd5b50565b600081359050612eb181612e8b565b92915050565b600080600080600060a08688031215612ed357612ed26128f0565b5b600086013567ffffffffffffffff811115612ef157612ef06128f5565b5b612efd88828901612e5d565b955050602086013567ffffffffffffffff811115612f1e57612f1d6128f5565b5b612f2a88828901612e5d565b945050604086013567ffffffffffffffff811115612f4b57612f4a6128f5565b5b612f5788828901612e5d565b9350506060612f6888828901612ea2565b9250506080612f7988828901612ea2565b9150509295509295909350565b612f8f816129b1565b82525050565b6000602082019050612faa6000830184612f86565b92915050565b600060208284031215612fc657612fc56128f0565b5b6000612fd484828501612ea2565b91505092915050565b60006040820190508181036000830152612ff781856129ef565b9050818103602083015261300b81846129ef565b90509392505050565b7f4e487b7100000000000000000000000000000000000000000000000000000000600052602160045260246000fd5b6003811061305457613053613014565b5b50565b600081905061306582613043565b919050565b600061307582613057565b9050919050565b6130858161306a565b82525050565b610100820160008201516130a260008501826129bb565b5060208201516130b560208501826129bb565b5060408201516130c86040850182612a9b565b5060608201516130db60608501826129bb565b5060808201516130ee60808501826129bb565b5060a082015161310160a08501826129bb565b5060c082015161311460c08501826129bb565b5060e082015161312760e085018261307c565b50505050565b600061010082019050613143600083018461308b565b92915050565b60006101208301600083015161316260008601826129bb565b5060208301516131756020860182612a9b565b506040830151848203604086015261318d8282612b01565b915050606083015184820360608601526131a78282612b01565b915050608083015184820360808601526131c18282612b01565b91505060a08301516131d660a08601826129bb565b5060c08301516131e960c08601826129bb565b5060e08301516131fc60e0860182612b46565b506101008301518482036101008601526132168282612b66565b9150508091505092915050565b6000602082019050818103600083015261323d8184613149565b905092915050565b60008060006060848603121561325e5761325d6128f0565b5b600061326c86828701612ea2565b935050602061327d86828701612ea2565b925050604061328e86828701612ea2565b9150509250925092565b6132a181612b3a565b82525050565b60006020820190506132bc6000830184613298565b92915050565b6132cb8161291a565b82525050565b6132da8161306a565b82525050565b6000610100820190506132f6600083018b612f86565b613303602083018a612f86565b61331060408301896132c2565b61331d6060830188612f86565b61332a6080830187612f86565b61333760a0830186612f86565b61334460c0830185612f86565b61335160e08301846132d1565b9998505050505050505050565b600082825260208201905092915050565b600061337a82612aaa565b613384818561335e565b9350613394818560208601612ac6565b61339d81612af0565b840191505092915050565b6000610100820190506133be600083018b612f86565b6133cb602083018a6132c2565b81810360408301526133dd818961336f565b905081810360608301526133f1818861336f565b90508181036080830152613405818761336f565b905061341460a0830186612f86565b61342160c0830185612f86565b61342e60e0830184613298565b9998505050505050505050565b7f4e487b7100000000000000000000000000000000000000000000000000000000600052603260045260246000fd5b7f4e487b7100000000000000000000000000000000000000000000000000000000600052601160045260246000fd5b60006134a4826129b1565b91507fffffffffffffffffffffffffffffffffffffffffffffffffffffffffffffffff82036134d6576134d561346a565b5b600182019050919050565b7f4e487b7100000000000000000000000000000000000000000000000000000000600052602260045260246000fd5b6000600282049050600182168061352857607f821691505b60208210810361353b5761353a6134e1565b5b50919050565b7f5469746c65207265717569726564000000000000000000000000000000000000600082015250565b6000613577600e8361335e565b915061358282613541565b602082019050919050565b600060208201905081810360008301526135a68161356a565b9050919050565b7f4c6f636174696f6e207265717569726564000000000000000000000000000000600082015250565b60006135e360118361335e565b91506135ee826135ad565b602082019050919050565b60006020820190508181036000830152613612816135d6565b9050919050565b7f5072696365206d7573742062652067726561746572207468616e203000000000600082015250565b600061364f601c8361335e565b915061365a82613619565b602082019050919050565b6000602082019050818103600083015261367e81613642565b9050919050565b60008190508160005260206000209050919050565b60006020601f8301049050919050565b600082821b905092915050565b6000600883026136e77fffffffffffffffffffffffffffffffffffffffffffffffffffffffffffffffff826136aa565b6136f186836136aa565b95508019841693508086168417925050509392505050565b6000819050919050565b600061372e613729613724846129b1565b613709565b6129b1565b9050919050565b6000819050919050565b61374883613713565b61375c61375482613735565b8484546136b7565b825550505050565b600090565b613771613764565b61377c81848461373f565b505050565b5b818110156137a057613795600082613769565b600181019050613782565b5050565b601f8211156137e5576137b681613685565b6137bf8461369a565b810160208510156137ce578190505b6137e26137da8561369a565b830182613781565b50505b505050565b600082821c905092915050565b6000613808600019846008026137ea565b1980831691505092915050565b600061382183836137f7565b9150826002028217905092915050565b61383a82612aaa565b67ffffffffffffffff81111561385357613852612d60565b5b61385d8254613510565b6138688282856137a4565b600060209050601f83116001811461389b5760008415613889578287015190505b6138938582613815565b8655506138fb565b601f1984166138a986613685565b60005b828110156138d1578489015182556001820191506020850194506020810190506138ac565b868310156138ee57848901516138ea601f8916826137f7565b8355505b6001600288020188555050505b505050505050565b6000604082019050818103600083015261391d818561336f565b905061392c6020830184612f86565b9392505050565b7f50726f706572747920646f6573206e6f74206578697374000000000000000000600082015250565b600061396960178361335e565b915061397482613933565b602082019050919050565b600060208201905081810360008301526139988161395c565b9050919050565b7f52656e74616c20646f6573206e6f742065786973740000000000000000000000600082015250565b60006139d560158361335e565b91506139e08261399f565b602082019050919050565b60006020820190508181036000830152613a04816139c8565b9050919050565b7f52656e74616c206e6f7420616374697665000000000000000000000000000000600082015250565b6000613a4160118361335e565b9150613a4c82613a0b565b602082019050919050565b60006020820190508181036000830152613a7081613a34565b9050919050565b7f4e6f7420617574686f72697a6564000000000000000000000000000000000000600082015250565b6000613aad600e8361335e565b9150613ab882613a77565b602082019050919050565b60006020820190508181036000830152613adc81613aa0565b9050919050565b6000613aee826129b1565b9150613af9836129b1565b9250828201905080821115613b1157613b1061346a565b5b92915050565b7f4e6f742070726f7065727479206f776e65720000000000000000000000000000600082015250565b6000613b4d60128361335e565b9150613b5882613b17565b602082019050919050565b60006020820190508181036000830152613b7c81613b40565b9050919050565b7f50726f7065727479206e6f742061637469766500000000000000000000000000600082015250565b6000613bb960138361335e565b9150613bc482613b83565b602082019050919050565b60006020820190508181036000830152613be881613bac565b9050919050565b7f53746172742064617465206d75737420626520696e2066757475726500000000600082015250565b6000613c25601c8361335e565b9150613c3082613bef565b602082019050919050565b60006020820190508181036000830152613c5481613c18565b9050919050565b7f456e642064617465206d7573742062652061667465722073746172742064617460008201527f6500000000000000000000000000000000000000000000000000000000000000602082015250565b6000613cb760218361335e565b9150613cc282613c5b565b604082019050919050565b60006020820190508181036000830152613ce681613caa565b9050919050565b7f446174657320636f6e666c6963742077697468206578697374696e672072656e60008201527f74616c0000000000000000000000000000000000000000000000000000000000602082015250565b6000613d4960238361335e565b9150613d5482613ced565b604082019050919050565b60006020820190508181036000830152613d7881613d3c565b9050919050565b6000604082019050613d946000830185612f86565b613da16020830184612f86565b9392505050565b7f52656e74616c20706572696f64206e6f7420656e646564000000000000000000600082015250565b6000613dde60178361335e565b9150613de982613da8565b602082019050919050565b60006020820190508181036000830152613e0d81613dd1565b9050919050565b7f43616e6e6f742072656e74206f776e2070726f70657274790000000000000000600082015250565b6000613e4a60188361335e565b9150613e5582613e14565b602082019050919050565b60006020820190508181036000830152613e7981613e3d565b9050919050565b6000613e8b826129b1565b9150613e96836129b1565b9250828203905081811115613eae57613ead61346a565b5b92915050565b7f4e487b7100000000000000000000000000000000000000000000000000000000600052601260045260246000fd5b6000613eee826129b1565b9150613ef9836129b1565b925082613f0957613f08613eb4565b5b828204905092915050565b6000613f1f826129b1565b9150613f2a836129b1565b9250828202613f38816129b1565b91508282048414831517613f4f57613f4e61346a565b5b5092915050565b7f496e73756666696369656e74207061796d656e74000000000000000000000000600082015250565b6000613f8c60148361335e565b9150613f9782613f56565b602082019050919050565b60006020820190508181036000830152613fbb81613f7f565b905091905056fea26469706673582212205cc8faa1ec67178785b73a992055f49e945acf9f1240be5ef46a6fad2dedeca964736f6c63430008130033",
  "linkReferences": {},
  "deployedLinkReferences": {}
}